{
  "contractName": "Voting",
  "abi": [
    {
      "anonymous": false,
      "inputs": [
        {
          "indexed": true,
          "internalType": "address",
          "name": "previousOwner",
          "type": "address"
        },
        {
          "indexed": true,
          "internalType": "address",
          "name": "newOwner",
          "type": "address"
        }
      ],
      "name": "OwnershipTransferred",
      "type": "event"
    },
    {
      "anonymous": false,
      "inputs": [
        {
          "indexed": false,
          "internalType": "string",
          "name": "name",
          "type": "string"
        }
      ],
      "name": "ProposalRegistered",
      "type": "event"
    },
    {
      "anonymous": false,
      "inputs": [],
      "name": "ProposalsRegistrationEnded",
      "type": "event"
    },
    {
      "anonymous": false,
      "inputs": [],
      "name": "ProposalsRegistrationStarted",
      "type": "event"
    },
    {
      "anonymous": false,
      "inputs": [
        {
          "indexed": false,
          "internalType": "string",
          "name": "names",
          "type": "string"
        }
      ],
      "name": "Proposer",
      "type": "event"
    },
    {
      "anonymous": false,
      "inputs": [
        {
          "indexed": false,
          "internalType": "address",
          "name": "voter",
          "type": "address"
        },
        {
          "indexed": false,
          "internalType": "uint256",
          "name": "proposalId",
          "type": "uint256"
        }
      ],
      "name": "Voted",
      "type": "event"
    },
    {
      "anonymous": false,
      "inputs": [
        {
          "indexed": false,
          "internalType": "address",
          "name": "voterAddress",
          "type": "address"
        }
      ],
      "name": "VoterRegistered",
      "type": "event"
    },
    {
      "anonymous": false,
      "inputs": [],
      "name": "VotesTallied",
      "type": "event"
    },
    {
      "anonymous": false,
      "inputs": [],
      "name": "VotingSessionEnded",
      "type": "event"
    },
    {
      "anonymous": false,
      "inputs": [],
      "name": "VotingSessionStarted",
      "type": "event"
    },
    {
      "anonymous": false,
      "inputs": [
        {
          "indexed": false,
          "internalType": "address",
          "name": "_address",
          "type": "address"
        }
      ],
      "name": "Whitelisted",
      "type": "event"
    },
    {
      "anonymous": false,
      "inputs": [
        {
          "indexed": false,
          "internalType": "enum Voting.WorkflowStatus",
          "name": "previousStatus",
          "type": "uint8"
        },
        {
          "indexed": false,
          "internalType": "enum Voting.WorkflowStatus",
          "name": "newStatus",
          "type": "uint8"
        }
      ],
      "name": "WorkflowStatusChange",
      "type": "event"
    },
    {
      "inputs": [],
      "name": "Admin",
      "outputs": [
        {
          "internalType": "address",
          "name": "",
          "type": "address"
        }
      ],
      "stateMutability": "view",
      "type": "function",
      "constant": true
    },
    {
      "inputs": [
        {
          "internalType": "address",
          "name": "",
          "type": "address"
        }
      ],
      "name": "_whitelist",
      "outputs": [
        {
          "internalType": "bool",
          "name": "",
          "type": "bool"
        }
      ],
      "stateMutability": "view",
      "type": "function",
      "constant": true
    },
    {
      "inputs": [
        {
          "internalType": "uint256",
          "name": "",
          "type": "uint256"
        }
      ],
      "name": "addresses",
      "outputs": [
        {
          "internalType": "address",
          "name": "",
          "type": "address"
        }
      ],
      "stateMutability": "view",
      "type": "function",
      "constant": true
    },
    {
      "inputs": [],
      "name": "getAddresses",
      "outputs": [
        {
          "internalType": "address[]",
          "name": "",
          "type": "address[]"
        }
      ],
      "stateMutability": "view",
      "type": "function",
      "constant": true
    },
    {
      "inputs": [],
      "name": "owner",
      "outputs": [
        {
          "internalType": "address",
          "name": "",
          "type": "address"
        }
      ],
      "stateMutability": "view",
      "type": "function",
      "constant": true
    },
    {
      "inputs": [
        {
          "internalType": "uint256",
          "name": "",
          "type": "uint256"
        }
      ],
      "name": "proposals",
      "outputs": [
        {
          "internalType": "string",
          "name": "name",
          "type": "string"
        },
        {
          "internalType": "uint256",
          "name": "voteCount",
          "type": "uint256"
        }
      ],
      "stateMutability": "view",
      "type": "function",
      "constant": true
    },
    {
      "inputs": [],
      "name": "renounceOwnership",
      "outputs": [],
      "stateMutability": "nonpayable",
      "type": "function"
    },
    {
      "inputs": [
        {
          "internalType": "address",
          "name": "newOwner",
          "type": "address"
        }
      ],
      "name": "transferOwnership",
      "outputs": [],
      "stateMutability": "nonpayable",
      "type": "function"
    },
    {
      "inputs": [
        {
          "internalType": "address",
          "name": "",
          "type": "address"
        }
      ],
      "name": "voters",
      "outputs": [
        {
          "internalType": "bool",
          "name": "isRegistered",
          "type": "bool"
        },
        {
          "internalType": "bool",
          "name": "hasVoted",
          "type": "bool"
        },
        {
          "internalType": "uint256",
          "name": "votedProposalId",
          "type": "uint256"
        }
      ],
      "stateMutability": "view",
      "type": "function",
      "constant": true
    },
    {
      "inputs": [
        {
          "internalType": "address",
          "name": "_address",
          "type": "address"
        }
      ],
      "name": "whitelist",
      "outputs": [],
      "stateMutability": "nonpayable",
      "type": "function"
    },
    {
      "inputs": [],
      "name": "workflowStatus",
      "outputs": [
        {
          "internalType": "enum Voting.WorkflowStatus",
          "name": "",
          "type": "uint8"
        }
      ],
      "stateMutability": "view",
      "type": "function",
      "constant": true
    },
    {
      "inputs": [],
      "name": "nextStage",
      "outputs": [],
      "stateMutability": "nonpayable",
      "type": "function"
    },
    {
      "inputs": [
        {
          "internalType": "address",
          "name": "voterAddress",
          "type": "address"
        }
      ],
      "name": "isRegistered",
      "outputs": [],
      "stateMutability": "nonpayable",
      "type": "function"
    },
    {
      "inputs": [],
      "name": "getStatus",
      "outputs": [
        {
          "internalType": "enum Voting.WorkflowStatus",
          "name": "",
          "type": "uint8"
        }
      ],
      "stateMutability": "view",
      "type": "function",
      "constant": true
    },
    {
      "inputs": [
        {
          "internalType": "string",
          "name": "names",
          "type": "string"
        }
      ],
      "name": "proposer",
      "outputs": [],
      "stateMutability": "nonpayable",
      "type": "function"
    },
    {
      "inputs": [],
      "name": "getPrp",
      "outputs": [
        {
          "components": [
            {
              "internalType": "string",
              "name": "name",
              "type": "string"
            },
            {
              "internalType": "uint256",
              "name": "voteCount",
              "type": "uint256"
            }
          ],
          "internalType": "struct Voting.Proposal[]",
          "name": "names",
          "type": "tuple[]"
        }
      ],
      "stateMutability": "view",
      "type": "function",
      "constant": true
    },
    {
      "inputs": [
        {
          "internalType": "address",
          "name": "voterAddress",
          "type": "address"
        },
        {
          "internalType": "uint256",
          "name": "votedProposalId",
          "type": "uint256"
        }
      ],
      "name": "voting",
      "outputs": [],
      "stateMutability": "nonpayable",
      "type": "function"
    },
    {
      "inputs": [],
      "name": "getVote",
      "outputs": [
        {
          "internalType": "uint256",
          "name": "votedProposalId",
          "type": "uint256"
        }
      ],
      "stateMutability": "view",
      "type": "function",
      "constant": true
    },
    {
      "inputs": [
        {
          "internalType": "address",
          "name": "voterAddress",
          "type": "address"
        }
      ],
      "name": "getYourVote",
      "outputs": [
        {
          "internalType": "uint256",
          "name": "votedProposalId",
          "type": "uint256"
        }
      ],
      "stateMutability": "view",
      "type": "function",
      "constant": true
    },
    {
      "inputs": [],
      "name": "winningProposalID",
      "outputs": [
        {
          "internalType": "uint256",
          "name": "winningProposalID_",
          "type": "uint256"
        }
      ],
      "stateMutability": "view",
      "type": "function",
      "constant": true
    },
    {
      "inputs": [],
      "name": "winnerName",
      "outputs": [
        {
          "internalType": "string",
          "name": "winnerName_",
          "type": "string"
        }
      ],
      "stateMutability": "view",
      "type": "function",
      "constant": true
    }
  ],
  "bytecode": "0x60806040526000600660006101000a81548160ff0219169083600581111561002357fe5b021790555034801561003457600080fd5b50600061004e6100f2640100000000026401000000009004565b905080600260006101000a81548173ffffffffffffffffffffffffffffffffffffffff021916908373ffffffffffffffffffffffffffffffffffffffff1602179055508073ffffffffffffffffffffffffffffffffffffffff16600073ffffffffffffffffffffffffffffffffffffffff167f8be0079c531659141344cd1fd0a4f28419497f9722a3daafe3b4186f6b6457e060405160405180910390a3506100fa565b600033905090565b61226c806101096000396000f3fe608060405234801561001057600080fd5b5060043610610154576000357c010000000000000000000000000000000000000000000000000000000090048063a3ec138d116100d5578063e2ba53f011610099578063e2ba53f01461034a578063edf26d9b14610368578063ee3743ab14610398578063f0aad624146103a2578063f2fde38b146103c0578063ff1b636d146103dc57610154565b8063a3ec138d14610292578063ab31e9ae146102c4578063bdc01431146102e0578063c3c5a547146102fe578063cfdb63ac1461031a57610154565b8063715018a61161011c578063715018a6146102125780638da5cb5b1461021c5780639b19251a1461023a578063a1edffa214610256578063a39fac121461027457610154565b8063013cf08b146101595780630242f3511461018a5780632f558a8f146101a85780634e69d560146101c457806356f4ed97146101e2575b600080fd5b610173600480360381019061016e91906118b5565b6103fa565b604051610181929190611ed8565b60405180910390f35b6101926104c3565b60405161019f9190612028565b60405180910390f35b6101c260048036038101906101bd9190611838565b6104e9565b005b6101cc6106f6565b6040516101d99190611e72565b60405180910390f35b6101fc60048036038101906101f7919061180f565b61070d565b6040516102099190612028565b60405180910390f35b61021a610759565b005b6102246108b1565b6040516102319190611d98565b60405180910390f35b610254600480360381019061024f919061180f565b6108db565b005b61025e610a5b565b60405161026b9190611e72565b60405180910390f35b61027c610a6e565b6040516102899190611ddc565b60405180910390f35b6102ac60048036038101906102a7919061180f565b610afc565b6040516102bb93929190611e3b565b60405180910390f35b6102de60048036038101906102d99190611874565b610b40565b005b6102e8610cee565b6040516102f59190612028565b60405180910390f35b6103186004803603810190610313919061180f565b610dd7565b005b610334600480360381019061032f919061180f565b610f64565b6040516103419190611e20565b60405180910390f35b610352610f84565b60405161035f9190611eb6565b60405180910390f35b610382600480360381019061037d91906118b5565b611049565b60405161038f9190611d98565b60405180910390f35b6103a0611085565b005b6103aa6113ec565b6040516103b79190611dfe565b60405180910390f35b6103da60048036038101906103d5919061180f565b6114f7565b005b6103e46116be565b6040516103f19190611d98565b60405180910390f35b6005818154811061040757fe5b9060005260206000209060020201600091509050806000018054600181600116156101000203166002900480601f0160208091040260200160405190810160405280929190818152602001828054600181600116156101000203166002900480156104b35780601f10610488576101008083540402835291602001916104b3565b820191906000526020600020905b81548152906001019060200180831161049657829003601f168201915b5050505050908060010154905082565b6000600581815481106104d257fe5b906000526020600020906002020160010154905090565b6000600460003373ffffffffffffffffffffffffffffffffffffffff1673ffffffffffffffffffffffffffffffffffffffff16815260200190815260200160002090506003600581111561053957fe5b600581111561054457fe5b600660009054906101000a900460ff16600581111561055f57fe5b1461059f576040517f08c379a000000000000000000000000000000000000000000000000000000000815260040161059690611f48565b60405180910390fd5b600460058111156105ac57fe5b60058111156105b757fe5b600660009054906101000a900460ff1660058111156105d257fe5b1415610613576040517f08c379a000000000000000000000000000000000000000000000000000000000815260040161060a90611f08565b60405180910390fd5b8060000160019054906101000a900460ff1615610665576040517f08c379a000000000000000000000000000000000000000000000000000000000815260040161065c90612008565b60405180910390fd5b60018160000160016101000a81548160ff02191690831515021790555081816001018190555060016005838154811061069a57fe5b9060005260206000209060020201600101600082825401925050819055507f4d99b957a2bc29a30ebd96a7be8e68fe50a3c701db28a91436490b7d53870ca483836040516106e9929190611db3565b60405180910390a1505050565b6000600660009054906101000a900460ff16905090565b6000600460008373ffffffffffffffffffffffffffffffffffffffff1673ffffffffffffffffffffffffffffffffffffffff168152602001908152602001600020600101549050919050565b6107616116e4565b73ffffffffffffffffffffffffffffffffffffffff16600260009054906101000a900473ffffffffffffffffffffffffffffffffffffffff1673ffffffffffffffffffffffffffffffffffffffff16146107f0576040517f08c379a00000000000000000000000000000000000000000000000000000000081526004016107e790611fe8565b60405180910390fd5b600073ffffffffffffffffffffffffffffffffffffffff16600260009054906101000a900473ffffffffffffffffffffffffffffffffffffffff1673ffffffffffffffffffffffffffffffffffffffff167f8be0079c531659141344cd1fd0a4f28419497f9722a3daafe3b4186f6b6457e060405160405180910390a36000600260006101000a81548173ffffffffffffffffffffffffffffffffffffffff021916908373ffffffffffffffffffffffffffffffffffffffff160217905550565b6000600260009054906101000a900473ffffffffffffffffffffffffffffffffffffffff16905090565b6000808273ffffffffffffffffffffffffffffffffffffffff1673ffffffffffffffffffffffffffffffffffffffff16815260200190815260200160002060009054906101000a900460ff1615610967576040517f08c379a000000000000000000000000000000000000000000000000000000000815260040161095e90611fc8565b60405180910390fd5b60016000808373ffffffffffffffffffffffffffffffffffffffff1673ffffffffffffffffffffffffffffffffffffffff16815260200190815260200160002060006101000a81548160ff0219169083151502179055506001819080600181540180825580915050600190039060005260206000200160009091909190916101000a81548173ffffffffffffffffffffffffffffffffffffffff021916908373ffffffffffffffffffffffffffffffffffffffff1602179055507faab7954e9d246b167ef88aeddad35209ca2489d95a8aeb59e288d9b19fae5a5481604051610a509190611d98565b60405180910390a150565b600660009054906101000a900460ff1681565b60606001805480602002602001604051908101604052809291908181526020018280548015610af257602002820191906000526020600020905b8160009054906101000a900473ffffffffffffffffffffffffffffffffffffffff1673ffffffffffffffffffffffffffffffffffffffff1681526020019060010190808311610aa8575b5050505050905090565b60046020528060005260406000206000915090508060000160009054906101000a900460ff16908060000160019054906101000a900460ff16908060010154905083565b6000600460003373ffffffffffffffffffffffffffffffffffffffff1673ffffffffffffffffffffffffffffffffffffffff16815260200190815260200160002090508060000160009054906101000a900460ff16610b9b57fe5b60016005811115610ba857fe5b6005811115610bb357fe5b600660009054906101000a900460ff166005811115610bce57fe5b14610bd557fe5b60026005811115610be257fe5b6005811115610bed57fe5b600660009054906101000a900460ff166005811115610c0857fe5b1415610c49576040517f08c379a0000000000000000000000000000000000000000000000000000000008152600401610c4090611f88565b60405180910390fd5b60056040518060400160405280848152602001600081525090806001815401808255809150506001900390600052602060002090600202016000909190919091506000820151816000019080519060200190610ca69291906116ec565b506020820151816001015550507f1d9fd49d94f81cbb79f6c7464d5b6036d7b34f7feacb3050b31e4e202b7f6dd882604051610ce29190611eb6565b60405180910390a15050565b6000600580811115610cfc57fe5b6005811115610d0757fe5b600660009054906101000a900460ff166005811115610d2257fe5b14610d62576040517f08c379a0000000000000000000000000000000000000000000000000000000008152600401610d5990611fa8565b60405180910390fd5b600080905060008090505b600580549050811015610dd2578160058281548110610d8857fe5b9060005260206000209060020201600101541115610dc55760058181548110610dad57fe5b90600052602060002090600202016001015491508092505b8080600101915050610d6d565b505090565b610ddf6116e4565b73ffffffffffffffffffffffffffffffffffffffff16600260009054906101000a900473ffffffffffffffffffffffffffffffffffffffff1673ffffffffffffffffffffffffffffffffffffffff1614610e6e576040517f08c379a0000000000000000000000000000000000000000000000000000000008152600401610e6590611fe8565b60405180910390fd5b6000600460008373ffffffffffffffffffffffffffffffffffffffff1673ffffffffffffffffffffffffffffffffffffffff16815260200190815260200160002090508060000160009054906101000a900460ff1615610f03576040517f08c379a0000000000000000000000000000000000000000000000000000000008152600401610efa90611f68565b60405180910390fd5b60018160000160006101000a81548160ff021916908315150217905550610f29826108db565b7fb6be2187d059cc2a55fe29e0e503b566e1e0f8c8780096e185429350acffd3dd82604051610f589190611d98565b60405180910390a15050565b60006020528060005260406000206000915054906101000a900460ff1681565b60606005610f90610cee565b81548110610f9a57fe5b90600052602060002090600202016000018054600181600116156101000203166002900480601f01602080910402602001604051908101604052809291908181526020018280546001816001161561010002031660029004801561103f5780601f106110145761010080835404028352916020019161103f565b820191906000526020600020905b81548152906001019060200180831161102257829003601f168201915b5050505050905090565b6001818154811061105657fe5b906000526020600020016000915054906101000a900473ffffffffffffffffffffffffffffffffffffffff1681565b61108d6116e4565b73ffffffffffffffffffffffffffffffffffffffff16600260009054906101000a900473ffffffffffffffffffffffffffffffffffffffff1673ffffffffffffffffffffffffffffffffffffffff161461111c576040517f08c379a000000000000000000000000000000000000000000000000000000000815260040161111390611fe8565b60405180910390fd5b6001600660009054906101000a900460ff16600581111561113957fe5b01600581111561114557fe5b600660006101000a81548160ff0219169083600581111561116257fe5b02179055506001600581111561117457fe5b600581111561117f57fe5b600660009054906101000a900460ff16600581111561119a57fe5b14156111cd577f344c25562921d075a298d34b6dd1fd00d36ff293974539dfd4a8c625d9f0064c60405160405180910390a15b600260058111156111da57fe5b60058111156111e557fe5b600660009054906101000a900460ff16600581111561120057fe5b1415611233577f240cb87b2e4df4c318e72bd714d45a9cad60249e883ff56b1fffd83a4595a8fa60405160405180910390a15b6003600581111561124057fe5b600581111561124b57fe5b600660009054906101000a900460ff16600581111561126657fe5b1415611299577f1b8e19a458c1bcd88553332c518cc5c4e2d5793e712ee766d4f1c14f672ef1f560405160405180910390a15b600460058111156112a657fe5b60058111156112b157fe5b600660009054906101000a900460ff1660058111156112cc57fe5b14156112ff577fc379d349a6301baf50fb2f98d829f4ae10b1cdb7c66f4e4d8117302df7b8cd4c60405160405180910390a15b60058081111561130b57fe5b600581111561131657fe5b600660009054906101000a900460ff16600581111561133157fe5b1415611364577f0e5e95ff8725ab3e7a4b6b59998a4c344c2aa8d1485f5e60cb7f337768e6134760405160405180910390a15b7f0a97a4ee45751e2abf3e4fc8946939630b11b371ea8ae39ccdc3056e98f5cc3f6001600660009054906101000a900460ff1660058111156113a257fe5b0360058111156113ae57fe5b600660009054906101000a900460ff1660058111156113c957fe5b60058111156113d457fe5b6040516113e2929190611e8d565b60405180910390a1565b60606005805480602002602001604051908101604052809291908181526020016000905b828210156114ee5783829060005260206000209060020201604051806040016040529081600082018054600181600116156101000203166002900480601f0160208091040260200160405190810160405280929190818152602001828054600181600116156101000203166002900480156114cc5780601f106114a1576101008083540402835291602001916114cc565b820191906000526020600020905b8154815290600101906020018083116114af57829003601f168201915b5050505050815260200160018201548152505081526020019060010190611410565b50505050905090565b6114ff6116e4565b73ffffffffffffffffffffffffffffffffffffffff16600260009054906101000a900473ffffffffffffffffffffffffffffffffffffffff1673ffffffffffffffffffffffffffffffffffffffff161461158e576040517f08c379a000000000000000000000000000000000000000000000000000000000815260040161158590611fe8565b60405180910390fd5b600073ffffffffffffffffffffffffffffffffffffffff168173ffffffffffffffffffffffffffffffffffffffff1614156115fe576040517f08c379a00000000000000000000000000000000000000000000000000000000081526004016115f590611f28565b60405180910390fd5b8073ffffffffffffffffffffffffffffffffffffffff16600260009054906101000a900473ffffffffffffffffffffffffffffffffffffffff1673ffffffffffffffffffffffffffffffffffffffff167f8be0079c531659141344cd1fd0a4f28419497f9722a3daafe3b4186f6b6457e060405160405180910390a380600260006101000a81548173ffffffffffffffffffffffffffffffffffffffff021916908373ffffffffffffffffffffffffffffffffffffffff16021790555050565b600360009054906101000a900473ffffffffffffffffffffffffffffffffffffffff1681565b600033905090565b828054600181600116156101000203166002900490600052602060002090601f016020900481019282601f1061172d57805160ff191683800117855561175b565b8280016001018555821561175b579182015b8281111561175a57825182559160200191906001019061173f565b5b509050611768919061176c565b5090565b61178e91905b8082111561178a576000816000905550600101611772565b5090565b90565b6000813590506117a081612208565b92915050565b600082601f8301126117b757600080fd5b81356117ca6117c582612070565b612043565b915080825260208301602083018583830111156117e657600080fd5b6117f18382846121a8565b50505092915050565b6000813590506118098161221f565b92915050565b60006020828403121561182157600080fd5b600061182f84828501611791565b91505092915050565b6000806040838503121561184b57600080fd5b600061185985828601611791565b925050602061186a858286016117fa565b9150509250929050565b60006020828403121561188657600080fd5b600082013567ffffffffffffffff8111156118a057600080fd5b6118ac848285016117a6565b91505092915050565b6000602082840312156118c757600080fd5b60006118d5848285016117fa565b91505092915050565b60006118ea838361190a565b60208301905092915050565b60006119028383611d3d565b905092915050565b6119138161213b565b82525050565b6119228161213b565b82525050565b6000611933826120bc565b61193d81856120f7565b93506119488361209c565b8060005b8381101561197957815161196088826118de565b975061196b836120dd565b92505060018101905061194c565b5085935050505092915050565b6000611991826120c7565b61199b8185612108565b9350836020820285016119ad856120ac565b8060005b858110156119e957848403895281516119ca85826118f6565b94506119d5836120ea565b925060208a019950506001810190506119b1565b50829750879550505050505092915050565b611a048161214d565b82525050565b611a1381612196565b82525050565b6000611a24826120d2565b611a2e8185612119565b9350611a3e8185602086016121b7565b611a47816121ea565b840191505092915050565b6000611a5d826120d2565b611a67818561212a565b9350611a778185602086016121b7565b611a80816121ea565b840191505092915050565b6000611a9860158361212a565b91507f6c6520766f7465206573742064656a612066696e6900000000000000000000006000830152602082019050919050565b6000611ad860268361212a565b91507f4f776e61626c653a206e6577206f776e657220697320746865207a65726f206160008301527f64647265737300000000000000000000000000000000000000000000000000006020830152604082019050919050565b6000611b3e601f8361212a565b91507f6c6520766f7465206e27612070617320656e636f726520636f6d6d656e6365006000830152602082019050919050565b6000611b7e60188361212a565b91507f7573616765722064656a6120656e72656e6769737472652100000000000000006000830152602082019050919050565b6000611bbe601c8361212a565b91507f6c65206465706f74206e2065737420706c757320706f737369626c65000000006000830152602082019050919050565b6000611bfe602d8361212a565b91507f6c6520636f6d7074616765206e206573742070617320706f737369626c65207060008301527f6f7572206c65206d6f6d656e74000000000000000000000000000000000000006020830152604082019050919050565b6000611c6460258361212a565b91507f54686973206164647265737320697320616c72656164792077686974656c697360008301527f74656420210000000000000000000000000000000000000000000000000000006020830152604082019050919050565b6000611cca60208361212a565b91507f4f776e61626c653a2063616c6c6572206973206e6f7420746865206f776e65726000830152602082019050919050565b6000611d0a600c8361212a565b91507f612064656a6120766f74652e00000000000000000000000000000000000000006000830152602082019050919050565b60006040830160008301518482036000860152611d5a8282611a19565b9150506020830151611d6f6020860182611d7a565b508091505092915050565b611d838161218c565b82525050565b611d928161218c565b82525050565b6000602082019050611dad6000830184611919565b92915050565b6000604082019050611dc86000830185611919565b611dd56020830184611d89565b9392505050565b60006020820190508181036000830152611df68184611928565b905092915050565b60006020820190508181036000830152611e188184611986565b905092915050565b6000602082019050611e3560008301846119fb565b92915050565b6000606082019050611e5060008301866119fb565b611e5d60208301856119fb565b611e6a6040830184611d89565b949350505050565b6000602082019050611e876000830184611a0a565b92915050565b6000604082019050611ea26000830185611a0a565b611eaf6020830184611a0a565b9392505050565b60006020820190508181036000830152611ed08184611a52565b905092915050565b60006040820190508181036000830152611ef28185611a52565b9050611f016020830184611d89565b9392505050565b60006020820190508181036000830152611f2181611a8b565b9050919050565b60006020820190508181036000830152611f4181611acb565b9050919050565b60006020820190508181036000830152611f6181611b31565b9050919050565b60006020820190508181036000830152611f8181611b71565b9050919050565b60006020820190508181036000830152611fa181611bb1565b9050919050565b60006020820190508181036000830152611fc181611bf1565b9050919050565b60006020820190508181036000830152611fe181611c57565b9050919050565b6000602082019050818103600083015261200181611cbd565b9050919050565b6000602082019050818103600083015261202181611cfd565b9050919050565b600060208201905061203d6000830184611d89565b92915050565b6000604051905081810181811067ffffffffffffffff8211171561206657600080fd5b8060405250919050565b600067ffffffffffffffff82111561208757600080fd5b601f19601f8301169050602081019050919050565b6000819050602082019050919050565b6000819050602082019050919050565b600081519050919050565b600081519050919050565b600081519050919050565b6000602082019050919050565b6000602082019050919050565b600082825260208201905092915050565b600082825260208201905092915050565b600082825260208201905092915050565b600082825260208201905092915050565b60006121468261216c565b9050919050565b60008115159050919050565b6000819050612167826121fb565b919050565b600073ffffffffffffffffffffffffffffffffffffffff82169050919050565b6000819050919050565b60006121a182612159565b9050919050565b82818337600083830152505050565b60005b838110156121d55780820151818401526020810190506121ba565b838111156121e4576000848401525b50505050565b6000601f19601f8301169050919050565b6006811061220557fe5b50565b6122118161213b565b811461221c57600080fd5b50565b6122288161218c565b811461223357600080fd5b5056fea26469706673582212207b192400a87b3748d48ab3a1e50f3791cb33ed962b952ff645f11a6311d9746f64736f6c634300060b0033",
  "immutableReferences": {},
  "source": "// SPDX-License-Identifier: MIT\npragma solidity ^0.6.11;\npragma experimental ABIEncoderV2;\n\nimport \"./Whitelist.sol\";\nimport \"./Ownable.sol\";\n\n\ncontract Voting is Whitelist, Ownable{\naddress public Admin;\nmapping(address => Voter) public voters;\nevent Proposer(string  names);\n\n \n// Type pour une proposition.\nstruct Proposal {\nstring name;\nuint voteCount;}\n\n\nstruct Voter {\nbool isRegistered;\nbool hasVoted;\nuint votedProposalId;}\n\n\n// Un tableau dynamique de structs `Proposal`.\nProposal[] public proposals;\n\nevent VoterRegistered(address voterAddress);\nevent ProposalsRegistrationStarted();\nevent ProposalsRegistrationEnded();\nevent ProposalRegistered(string name);\nevent VotingSessionStarted();\nevent VotingSessionEnded();\nevent Voted (address voter, uint proposalId);\nevent VotesTallied();\n\n\nenum WorkflowStatus {\nRegisteringVoters,\nProposalsRegistrationStarted,\nProposalsRegistrationEnded,\nVotingSessionStarted,\nVotingSessionEnded,\nVotesTallied}\n      \n\t  // Le workflow par dfaut,est le suivant :\nWorkflowStatus public workflowStatus= WorkflowStatus.RegisteringVoters;\n\nevent WorkflowStatusChange(WorkflowStatus previousStatus, WorkflowStatus newStatus);\n \nfunction nextStage() public onlyOwner {\nworkflowStatus = WorkflowStatus((uint(workflowStatus) + 1));\n   \n   if (workflowStatus == WorkflowStatus(1)) { emit ProposalsRegistrationStarted();}\n   if (workflowStatus == WorkflowStatus(2)) { emit ProposalsRegistrationEnded();}\n   if (workflowStatus == WorkflowStatus(3)) { emit VotingSessionStarted();}\n   if (workflowStatus == WorkflowStatus(4)) { emit VotingSessionEnded();}\n   if (workflowStatus == WorkflowStatus(5)) { emit VotesTallied();}\nemit WorkflowStatusChange(\nWorkflowStatus(uint(workflowStatus)-1),WorkflowStatus( uint(workflowStatus) ) );}\n\n\n   \nfunction isRegistered(address voterAddress) public onlyOwner {\n        Voter storage sender = voters[voterAddress];\n        require(!sender.isRegistered, \"usager deja enrengistre!\");\n       sender.isRegistered = true;\n\t   //appel  une fct du contrat parent \n        super.whitelist(voterAddress);\n        emit VoterRegistered(voterAddress); }    \n\nfunction getStatus() public view returns (WorkflowStatus) {\n    return workflowStatus;}\n\n\nfunction proposer(string  memory names) public {\n   Voter storage sender = voters[msg.sender];\n  assert(sender.isRegistered);\n  assert((workflowStatus ==WorkflowStatus(1)));\n   require(!(workflowStatus == WorkflowStatus(2)),   \"le depot n est plus possible\");\n   proposals.push(Proposal({name: names,voteCount: 0})  );\n   emit ProposalRegistered(names); \n            }\n\t\t\t\n    function  getPrp() public view  returns (Proposal[] memory names)\n{    return proposals ;\n}\n \n \n \n function voting(address voterAddress,uint votedProposalId) public {\n        Voter storage sender = voters[msg.sender];\n\t\trequire((workflowStatus == WorkflowStatus(3)),\"le vote n'a pas encore commence\");\n\t\trequire(!(workflowStatus == WorkflowStatus(4)),\"le vote est deja fini\");\n\t\trequire(!sender.hasVoted, \"a deja vote.\");\n \t    sender.hasVoted= true;\n        sender.votedProposalId = votedProposalId;\n\n        // Si `votedProposalId` n'est pas un index valide,\n        // une erreur sera leve et l'excution annule\n\n        proposals[votedProposalId].voteCount += 1;\n\t\temit Voted (voterAddress, votedProposalId);\n    }\n\t\n\t\n function getVote() public view returns (uint votedProposalId) {\n         return proposals[votedProposalId].voteCount;\n\n    }     \t\n\n\n function getYourVote(address voterAddress) public view returns (uint votedProposalId) {\n         return voters[voterAddress].votedProposalId;\n\n    } \n\n    ///  Calcule la proposition gagnante\n    /// en prenant tous les votes prcdents en compte.\n\t\n    function winningProposalID() public view\n            returns (uint winningProposalID_)\n    {require((workflowStatus == WorkflowStatus(5)),\n\t         \"le comptage n est pas possible pour le moment\");\n            uint winningVoteCount = 0;\n               for (uint p = 0; p < proposals.length; p++) {\n            if (proposals[p].voteCount > winningVoteCount) {\n                winningVoteCount = proposals[p].voteCount;\n                winningProposalID_ = p;\n             } \n        }\n    }\n\t\n\t  function winnerName() public view\n            returns (string memory winnerName_){\n        winnerName_ = proposals[winningProposalID()].name;\n    }\n}\n",
  "sourcePath": "/home/matthieu/Documents/Alyra/truffle/voting-react/contracts/Voting.sol",
  "compiler": {
    "name": "solc",
    "version": "0.6.11+commit.5ef660b1.Emscripten.clang"
  },
  "schemaVersion": "3.4.1",
  "updatedAt": "2021-10-08T14:30:31.148Z",
  "networkType": "ethereum",
  "devdoc": {
    "kind": "dev",
    "methods": {
      "owner()": {
        "details": "Returns the address of the current owner."
      },
      "renounceOwnership()": {
        "details": "Leaves the contract without owner. It will not be possible to call `onlyOwner` functions anymore. Can only be called by the current owner. NOTE: Renouncing ownership will leave the contract without an owner, thereby removing any functionality that is only available to the owner."
      },
      "transferOwnership(address)": {
        "details": "Transfers ownership of the contract to a new account (`newOwner`). Can only be called by the current owner."
      }
    },
    "version": 1
  },
  "userdoc": {
    "kind": "user",
    "methods": {
      "winningProposalID()": {
        "notice": "Calcule la proposition gagnante en prenant tous les votes prcdents en compte."
      }
    },
    "version": 1
  }
}