{
  "contractName": "Voting",
  "abi": [
    {
      "anonymous": false,
      "inputs": [
        {
          "indexed": true,
          "internalType": "address",
          "name": "previousOwner",
          "type": "address"
        },
        {
          "indexed": true,
          "internalType": "address",
          "name": "newOwner",
          "type": "address"
        }
      ],
      "name": "OwnershipTransferred",
      "type": "event"
    },
    {
      "anonymous": false,
      "inputs": [
        {
          "indexed": false,
          "internalType": "string",
          "name": "name",
          "type": "string"
        }
      ],
      "name": "ProposalRegistered",
      "type": "event"
    },
    {
      "anonymous": false,
      "inputs": [],
      "name": "ProposalsRegistrationEnded",
      "type": "event"
    },
    {
      "anonymous": false,
      "inputs": [],
      "name": "ProposalsRegistrationStarted",
      "type": "event"
    },
    {
      "anonymous": false,
      "inputs": [
        {
          "indexed": false,
          "internalType": "string",
          "name": "names",
          "type": "string"
        }
      ],
      "name": "Proposer",
      "type": "event"
    },
    {
      "anonymous": false,
      "inputs": [
        {
          "components": [
            {
              "internalType": "string",
              "name": "name",
              "type": "string"
            },
            {
              "internalType": "uint256",
              "name": "voteCount",
              "type": "uint256"
            }
          ],
          "indexed": false,
          "internalType": "struct Voting.Proposal",
          "name": "Prop",
          "type": "tuple"
        }
      ],
      "name": "VoteAdded",
      "type": "event"
    },
    {
      "anonymous": false,
      "inputs": [
        {
          "indexed": false,
          "internalType": "address",
          "name": "voter",
          "type": "address"
        },
        {
          "indexed": false,
          "internalType": "uint256",
          "name": "proposalId",
          "type": "uint256"
        }
      ],
      "name": "Voted",
      "type": "event"
    },
    {
      "anonymous": false,
      "inputs": [
        {
          "indexed": false,
          "internalType": "address",
          "name": "voterAddress",
          "type": "address"
        }
      ],
      "name": "VoterRegistered",
      "type": "event"
    },
    {
      "anonymous": false,
      "inputs": [],
      "name": "VotesTallied",
      "type": "event"
    },
    {
      "anonymous": false,
      "inputs": [],
      "name": "VotingSessionEnded",
      "type": "event"
    },
    {
      "anonymous": false,
      "inputs": [],
      "name": "VotingSessionStarted",
      "type": "event"
    },
    {
      "anonymous": false,
      "inputs": [
        {
          "indexed": false,
          "internalType": "enum Voting.WorkflowStatus",
          "name": "previousStatus",
          "type": "uint8"
        },
        {
          "indexed": false,
          "internalType": "enum Voting.WorkflowStatus",
          "name": "newStatus",
          "type": "uint8"
        }
      ],
      "name": "WorkflowStatusChange",
      "type": "event"
    },
    {
      "inputs": [],
      "name": "Admin",
      "outputs": [
        {
          "internalType": "address",
          "name": "",
          "type": "address"
        }
      ],
      "stateMutability": "view",
      "type": "function",
      "constant": true
    },
    {
      "inputs": [
        {
          "internalType": "address",
          "name": "",
          "type": "address"
        }
      ],
      "name": "_whitelist",
      "outputs": [
        {
          "internalType": "bool",
          "name": "",
          "type": "bool"
        }
      ],
      "stateMutability": "view",
      "type": "function",
      "constant": true
    },
    {
      "inputs": [
        {
          "internalType": "uint256",
          "name": "",
          "type": "uint256"
        }
      ],
      "name": "addresses",
      "outputs": [
        {
          "internalType": "address",
          "name": "",
          "type": "address"
        }
      ],
      "stateMutability": "view",
      "type": "function",
      "constant": true
    },
    {
      "inputs": [],
      "name": "getAddresses",
      "outputs": [
        {
          "internalType": "address[]",
          "name": "",
          "type": "address[]"
        }
      ],
      "stateMutability": "view",
      "type": "function",
      "constant": true
    },
    {
      "inputs": [],
      "name": "owner",
      "outputs": [
        {
          "internalType": "address",
          "name": "",
          "type": "address"
        }
      ],
      "stateMutability": "view",
      "type": "function",
      "constant": true
    },
    {
      "inputs": [
        {
          "internalType": "uint256",
          "name": "",
          "type": "uint256"
        }
      ],
      "name": "proposals",
      "outputs": [
        {
          "internalType": "string",
          "name": "name",
          "type": "string"
        },
        {
          "internalType": "uint256",
          "name": "voteCount",
          "type": "uint256"
        }
      ],
      "stateMutability": "view",
      "type": "function",
      "constant": true
    },
    {
      "inputs": [],
      "name": "renounceOwnership",
      "outputs": [],
      "stateMutability": "nonpayable",
      "type": "function"
    },
    {
      "inputs": [
        {
          "internalType": "address",
          "name": "newOwner",
          "type": "address"
        }
      ],
      "name": "transferOwnership",
      "outputs": [],
      "stateMutability": "nonpayable",
      "type": "function"
    },
    {
      "inputs": [
        {
          "internalType": "address",
          "name": "",
          "type": "address"
        }
      ],
      "name": "voters",
      "outputs": [
        {
          "internalType": "bool",
          "name": "isRegistered",
          "type": "bool"
        },
        {
          "internalType": "bool",
          "name": "hasVoted",
          "type": "bool"
        },
        {
          "internalType": "uint256",
          "name": "votedProposalId",
          "type": "uint256"
        }
      ],
      "stateMutability": "view",
      "type": "function",
      "constant": true
    },
    {
      "inputs": [
        {
          "internalType": "address",
          "name": "_address",
          "type": "address"
        }
      ],
      "name": "whitelist",
      "outputs": [],
      "stateMutability": "nonpayable",
      "type": "function"
    },
    {
      "inputs": [],
      "name": "workflowStatus",
      "outputs": [
        {
          "internalType": "enum Voting.WorkflowStatus",
          "name": "",
          "type": "uint8"
        }
      ],
      "stateMutability": "view",
      "type": "function",
      "constant": true
    },
    {
      "inputs": [],
      "name": "nextStage",
      "outputs": [],
      "stateMutability": "nonpayable",
      "type": "function"
    },
    {
      "inputs": [
        {
          "internalType": "address",
          "name": "voterAddress",
          "type": "address"
        }
      ],
      "name": "isRegistered",
      "outputs": [],
      "stateMutability": "nonpayable",
      "type": "function"
    },
    {
      "inputs": [],
      "name": "getStatus",
      "outputs": [
        {
          "internalType": "enum Voting.WorkflowStatus",
          "name": "",
          "type": "uint8"
        }
      ],
      "stateMutability": "view",
      "type": "function",
      "constant": true
    },
    {
      "inputs": [
        {
          "internalType": "string",
          "name": "names",
          "type": "string"
        }
      ],
      "name": "proposer",
      "outputs": [],
      "stateMutability": "nonpayable",
      "type": "function"
    },
    {
      "inputs": [],
      "name": "getPrp",
      "outputs": [
        {
          "components": [
            {
              "internalType": "string",
              "name": "name",
              "type": "string"
            },
            {
              "internalType": "uint256",
              "name": "voteCount",
              "type": "uint256"
            }
          ],
          "internalType": "struct Voting.Proposal[]",
          "name": "names",
          "type": "tuple[]"
        }
      ],
      "stateMutability": "view",
      "type": "function",
      "constant": true
    },
    {
      "inputs": [
        {
          "internalType": "address",
          "name": "voterAddress",
          "type": "address"
        },
        {
          "internalType": "uint256",
          "name": "votedProposalId",
          "type": "uint256"
        }
      ],
      "name": "voting",
      "outputs": [],
      "stateMutability": "nonpayable",
      "type": "function"
    },
    {
      "inputs": [],
      "name": "getVote",
      "outputs": [
        {
          "internalType": "uint256",
          "name": "votedProposalId",
          "type": "uint256"
        }
      ],
      "stateMutability": "view",
      "type": "function",
      "constant": true
    },
    {
      "inputs": [
        {
          "internalType": "address",
          "name": "voterAddress",
          "type": "address"
        }
      ],
      "name": "getYourVote",
      "outputs": [
        {
          "internalType": "uint256",
          "name": "votedProposalId",
          "type": "uint256"
        }
      ],
      "stateMutability": "view",
      "type": "function",
      "constant": true
    },
    {
      "inputs": [
        {
          "internalType": "address",
          "name": "voterAddress",
          "type": "address"
        }
      ],
      "name": "gethasVoted",
      "outputs": [
        {
          "internalType": "bool",
          "name": "hasVoted",
          "type": "bool"
        }
      ],
      "stateMutability": "view",
      "type": "function",
      "constant": true
    },
    {
      "inputs": [],
      "name": "winningProposalID",
      "outputs": [
        {
          "internalType": "uint256",
          "name": "winningProposalID_",
          "type": "uint256"
        }
      ],
      "stateMutability": "view",
      "type": "function",
      "constant": true
    },
    {
      "inputs": [],
      "name": "winnerName",
      "outputs": [
        {
          "internalType": "string",
          "name": "winnerName_",
          "type": "string"
        }
      ],
      "stateMutability": "view",
      "type": "function",
      "constant": true
    }
  ],
  "bytecode": "0x60806040526000600660006101000a81548160ff0219169083600581111561002357fe5b021790555034801561003457600080fd5b50600061004e6100f2640100000000026401000000009004565b905080600260006101000a81548173ffffffffffffffffffffffffffffffffffffffff021916908373ffffffffffffffffffffffffffffffffffffffff1602179055508073ffffffffffffffffffffffffffffffffffffffff16600073ffffffffffffffffffffffffffffffffffffffff167f8be0079c531659141344cd1fd0a4f28419497f9722a3daafe3b4186f6b6457e060405160405180910390a3506100fa565b600033905090565b6122c9806101096000396000f3fe608060405234801561001057600080fd5b506004361061015f576000357c010000000000000000000000000000000000000000000000000000000090048063ab31e9ae116100d5578063e2ba53f011610099578063e2ba53f014610385578063edf26d9b146103a3578063ee3743ab146103d3578063f0aad624146103dd578063f2fde38b146103fb578063ff1b636d146104175761015f565b8063ab31e9ae146102cf578063bdc01431146102eb578063c3c5a54714610309578063cfdb63ac14610325578063dfc1c817146103555761015f565b8063715018a611610127578063715018a61461021d5780638da5cb5b146102275780639b19251a14610245578063a1edffa214610261578063a39fac121461027f578063a3ec138d1461029d5761015f565b8063013cf08b146101645780630242f351146101955780632f558a8f146101b35780634e69d560146101cf57806356f4ed97146101ed575b600080fd5b61017e60048036038101906101799190611912565b610435565b60405161018c929190611f35565b60405180910390f35b61019d6104fe565b6040516101aa9190612085565b60405180910390f35b6101cd60048036038101906101c89190611895565b610524565b005b6101d7610731565b6040516101e49190611ecf565b60405180910390f35b6102076004803603810190610202919061186c565b610748565b6040516102149190612085565b60405180910390f35b610225610794565b005b61022f6108ec565b60405161023c9190611df5565b60405180910390f35b61025f600480360381019061025a919061186c565b610916565b005b610269610a5f565b6040516102769190611ecf565b60405180910390f35b610287610a72565b6040516102949190611e39565b60405180910390f35b6102b760048036038101906102b2919061186c565b610b00565b6040516102c693929190611e98565b60405180910390f35b6102e960048036038101906102e491906118d1565b610b44565b005b6102f3610cf2565b6040516103009190612085565b60405180910390f35b610323600480360381019061031e919061186c565b610ddb565b005b61033f600480360381019061033a919061186c565b610f68565b60405161034c9190611e7d565b60405180910390f35b61036f600480360381019061036a919061186c565b610f88565b60405161037c9190611e7d565b60405180910390f35b61038d610fe1565b60405161039a9190611f13565b60405180910390f35b6103bd60048036038101906103b89190611912565b6110a6565b6040516103ca9190611df5565b60405180910390f35b6103db6110e2565b005b6103e5611449565b6040516103f29190611e5b565b60405180910390f35b6104156004803603810190610410919061186c565b611554565b005b61041f61171b565b60405161042c9190611df5565b60405180910390f35b6005818154811061044257fe5b9060005260206000209060020201600091509050806000018054600181600116156101000203166002900480601f0160208091040260200160405190810160405280929190818152602001828054600181600116156101000203166002900480156104ee5780601f106104c3576101008083540402835291602001916104ee565b820191906000526020600020905b8154815290600101906020018083116104d157829003601f168201915b5050505050908060010154905082565b60006005818154811061050d57fe5b906000526020600020906002020160010154905090565b6000600460003373ffffffffffffffffffffffffffffffffffffffff1673ffffffffffffffffffffffffffffffffffffffff16815260200190815260200160002090506003600581111561057457fe5b600581111561057f57fe5b600660009054906101000a900460ff16600581111561059a57fe5b146105da576040517f08c379a00000000000000000000000000000000000000000000000000000000081526004016105d190611fa5565b60405180910390fd5b600460058111156105e757fe5b60058111156105f257fe5b600660009054906101000a900460ff16600581111561060d57fe5b141561064e576040517f08c379a000000000000000000000000000000000000000000000000000000000815260040161064590611f65565b60405180910390fd5b8060000160019054906101000a900460ff16156106a0576040517f08c379a000000000000000000000000000000000000000000000000000000000815260040161069790612065565b60405180910390fd5b60018160000160016101000a81548160ff0219169083151502179055508181600101819055506001600583815481106106d557fe5b9060005260206000209060020201600101600082825401925050819055507f4d99b957a2bc29a30ebd96a7be8e68fe50a3c701db28a91436490b7d53870ca48383604051610724929190611e10565b60405180910390a1505050565b6000600660009054906101000a900460ff16905090565b6000600460008373ffffffffffffffffffffffffffffffffffffffff1673ffffffffffffffffffffffffffffffffffffffff168152602001908152602001600020600101549050919050565b61079c611741565b73ffffffffffffffffffffffffffffffffffffffff16600260009054906101000a900473ffffffffffffffffffffffffffffffffffffffff1673ffffffffffffffffffffffffffffffffffffffff161461082b576040517f08c379a000000000000000000000000000000000000000000000000000000000815260040161082290612045565b60405180910390fd5b600073ffffffffffffffffffffffffffffffffffffffff16600260009054906101000a900473ffffffffffffffffffffffffffffffffffffffff1673ffffffffffffffffffffffffffffffffffffffff167f8be0079c531659141344cd1fd0a4f28419497f9722a3daafe3b4186f6b6457e060405160405180910390a36000600260006101000a81548173ffffffffffffffffffffffffffffffffffffffff021916908373ffffffffffffffffffffffffffffffffffffffff160217905550565b6000600260009054906101000a900473ffffffffffffffffffffffffffffffffffffffff16905090565b6000808273ffffffffffffffffffffffffffffffffffffffff1673ffffffffffffffffffffffffffffffffffffffff16815260200190815260200160002060009054906101000a900460ff16156109a2576040517f08c379a000000000000000000000000000000000000000000000000000000000815260040161099990612025565b60405180910390fd5b60016000808373ffffffffffffffffffffffffffffffffffffffff1673ffffffffffffffffffffffffffffffffffffffff16815260200190815260200160002060006101000a81548160ff0219169083151502179055506001819080600181540180825580915050600190039060005260206000200160009091909190916101000a81548173ffffffffffffffffffffffffffffffffffffffff021916908373ffffffffffffffffffffffffffffffffffffffff16021790555050565b600660009054906101000a900460ff1681565b60606001805480602002602001604051908101604052809291908181526020018280548015610af657602002820191906000526020600020905b8160009054906101000a900473ffffffffffffffffffffffffffffffffffffffff1673ffffffffffffffffffffffffffffffffffffffff1681526020019060010190808311610aac575b5050505050905090565b60046020528060005260406000206000915090508060000160009054906101000a900460ff16908060000160019054906101000a900460ff16908060010154905083565b6000600460003373ffffffffffffffffffffffffffffffffffffffff1673ffffffffffffffffffffffffffffffffffffffff16815260200190815260200160002090508060000160009054906101000a900460ff16610b9f57fe5b60016005811115610bac57fe5b6005811115610bb757fe5b600660009054906101000a900460ff166005811115610bd257fe5b14610bd957fe5b60026005811115610be657fe5b6005811115610bf157fe5b600660009054906101000a900460ff166005811115610c0c57fe5b1415610c4d576040517f08c379a0000000000000000000000000000000000000000000000000000000008152600401610c4490611fe5565b60405180910390fd5b60056040518060400160405280848152602001600081525090806001815401808255809150506001900390600052602060002090600202016000909190919091506000820151816000019080519060200190610caa929190611749565b506020820151816001015550507f1d9fd49d94f81cbb79f6c7464d5b6036d7b34f7feacb3050b31e4e202b7f6dd882604051610ce69190611f13565b60405180910390a15050565b6000600580811115610d0057fe5b6005811115610d0b57fe5b600660009054906101000a900460ff166005811115610d2657fe5b14610d66576040517f08c379a0000000000000000000000000000000000000000000000000000000008152600401610d5d90612005565b60405180910390fd5b600080905060008090505b600580549050811015610dd6578160058281548110610d8c57fe5b9060005260206000209060020201600101541115610dc95760058181548110610db157fe5b90600052602060002090600202016001015491508092505b8080600101915050610d71565b505090565b610de3611741565b73ffffffffffffffffffffffffffffffffffffffff16600260009054906101000a900473ffffffffffffffffffffffffffffffffffffffff1673ffffffffffffffffffffffffffffffffffffffff1614610e72576040517f08c379a0000000000000000000000000000000000000000000000000000000008152600401610e6990612045565b60405180910390fd5b6000600460008373ffffffffffffffffffffffffffffffffffffffff1673ffffffffffffffffffffffffffffffffffffffff16815260200190815260200160002090508060000160009054906101000a900460ff1615610f07576040517f08c379a0000000000000000000000000000000000000000000000000000000008152600401610efe90611fc5565b60405180910390fd5b60018160000160006101000a81548160ff021916908315150217905550610f2d82610916565b7fb6be2187d059cc2a55fe29e0e503b566e1e0f8c8780096e185429350acffd3dd82604051610f5c9190611df5565b60405180910390a15050565b60006020528060005260406000206000915054906101000a900460ff1681565b6000600460008373ffffffffffffffffffffffffffffffffffffffff1673ffffffffffffffffffffffffffffffffffffffff16815260200190815260200160002060000160019054906101000a900460ff169050919050565b60606005610fed610cf2565b81548110610ff757fe5b90600052602060002090600202016000018054600181600116156101000203166002900480601f01602080910402602001604051908101604052809291908181526020018280546001816001161561010002031660029004801561109c5780601f106110715761010080835404028352916020019161109c565b820191906000526020600020905b81548152906001019060200180831161107f57829003601f168201915b5050505050905090565b600181815481106110b357fe5b906000526020600020016000915054906101000a900473ffffffffffffffffffffffffffffffffffffffff1681565b6110ea611741565b73ffffffffffffffffffffffffffffffffffffffff16600260009054906101000a900473ffffffffffffffffffffffffffffffffffffffff1673ffffffffffffffffffffffffffffffffffffffff1614611179576040517f08c379a000000000000000000000000000000000000000000000000000000000815260040161117090612045565b60405180910390fd5b6001600660009054906101000a900460ff16600581111561119657fe5b0160058111156111a257fe5b600660006101000a81548160ff021916908360058111156111bf57fe5b0217905550600160058111156111d157fe5b60058111156111dc57fe5b600660009054906101000a900460ff1660058111156111f757fe5b141561122a577f344c25562921d075a298d34b6dd1fd00d36ff293974539dfd4a8c625d9f0064c60405160405180910390a15b6002600581111561123757fe5b600581111561124257fe5b600660009054906101000a900460ff16600581111561125d57fe5b1415611290577f240cb87b2e4df4c318e72bd714d45a9cad60249e883ff56b1fffd83a4595a8fa60405160405180910390a15b6003600581111561129d57fe5b60058111156112a857fe5b600660009054906101000a900460ff1660058111156112c357fe5b14156112f6577f1b8e19a458c1bcd88553332c518cc5c4e2d5793e712ee766d4f1c14f672ef1f560405160405180910390a15b6004600581111561130357fe5b600581111561130e57fe5b600660009054906101000a900460ff16600581111561132957fe5b141561135c577fc379d349a6301baf50fb2f98d829f4ae10b1cdb7c66f4e4d8117302df7b8cd4c60405160405180910390a15b60058081111561136857fe5b600581111561137357fe5b600660009054906101000a900460ff16600581111561138e57fe5b14156113c1577f0e5e95ff8725ab3e7a4b6b59998a4c344c2aa8d1485f5e60cb7f337768e6134760405160405180910390a15b7f0a97a4ee45751e2abf3e4fc8946939630b11b371ea8ae39ccdc3056e98f5cc3f6001600660009054906101000a900460ff1660058111156113ff57fe5b03600581111561140b57fe5b600660009054906101000a900460ff16600581111561142657fe5b600581111561143157fe5b60405161143f929190611eea565b60405180910390a1565b60606005805480602002602001604051908101604052809291908181526020016000905b8282101561154b5783829060005260206000209060020201604051806040016040529081600082018054600181600116156101000203166002900480601f0160208091040260200160405190810160405280929190818152602001828054600181600116156101000203166002900480156115295780601f106114fe57610100808354040283529160200191611529565b820191906000526020600020905b81548152906001019060200180831161150c57829003601f168201915b505050505081526020016001820154815250508152602001906001019061146d565b50505050905090565b61155c611741565b73ffffffffffffffffffffffffffffffffffffffff16600260009054906101000a900473ffffffffffffffffffffffffffffffffffffffff1673ffffffffffffffffffffffffffffffffffffffff16146115eb576040517f08c379a00000000000000000000000000000000000000000000000000000000081526004016115e290612045565b60405180910390fd5b600073ffffffffffffffffffffffffffffffffffffffff168173ffffffffffffffffffffffffffffffffffffffff16141561165b576040517f08c379a000000000000000000000000000000000000000000000000000000000815260040161165290611f85565b60405180910390fd5b8073ffffffffffffffffffffffffffffffffffffffff16600260009054906101000a900473ffffffffffffffffffffffffffffffffffffffff1673ffffffffffffffffffffffffffffffffffffffff167f8be0079c531659141344cd1fd0a4f28419497f9722a3daafe3b4186f6b6457e060405160405180910390a380600260006101000a81548173ffffffffffffffffffffffffffffffffffffffff021916908373ffffffffffffffffffffffffffffffffffffffff16021790555050565b600360009054906101000a900473ffffffffffffffffffffffffffffffffffffffff1681565b600033905090565b828054600181600116156101000203166002900490600052602060002090601f016020900481019282601f1061178a57805160ff19168380011785556117b8565b828001600101855582156117b8579182015b828111156117b757825182559160200191906001019061179c565b5b5090506117c591906117c9565b5090565b6117eb91905b808211156117e75760008160009055506001016117cf565b5090565b90565b6000813590506117fd81612265565b92915050565b600082601f83011261181457600080fd5b8135611827611822826120cd565b6120a0565b9150808252602083016020830185838301111561184357600080fd5b61184e838284612205565b50505092915050565b6000813590506118668161227c565b92915050565b60006020828403121561187e57600080fd5b600061188c848285016117ee565b91505092915050565b600080604083850312156118a857600080fd5b60006118b6858286016117ee565b92505060206118c785828601611857565b9150509250929050565b6000602082840312156118e357600080fd5b600082013567ffffffffffffffff8111156118fd57600080fd5b61190984828501611803565b91505092915050565b60006020828403121561192457600080fd5b600061193284828501611857565b91505092915050565b60006119478383611967565b60208301905092915050565b600061195f8383611d9a565b905092915050565b61197081612198565b82525050565b61197f81612198565b82525050565b600061199082612119565b61199a8185612154565b93506119a5836120f9565b8060005b838110156119d65781516119bd888261193b565b97506119c88361213a565b9250506001810190506119a9565b5085935050505092915050565b60006119ee82612124565b6119f88185612165565b935083602082028501611a0a85612109565b8060005b85811015611a465784840389528151611a278582611953565b9450611a3283612147565b925060208a01995050600181019050611a0e565b50829750879550505050505092915050565b611a61816121aa565b82525050565b611a70816121f3565b82525050565b6000611a818261212f565b611a8b8185612176565b9350611a9b818560208601612214565b611aa481612247565b840191505092915050565b6000611aba8261212f565b611ac48185612187565b9350611ad4818560208601612214565b611add81612247565b840191505092915050565b6000611af5601583612187565b91507f6c6520766f7465206573742064656a612066696e6900000000000000000000006000830152602082019050919050565b6000611b35602683612187565b91507f4f776e61626c653a206e6577206f776e657220697320746865207a65726f206160008301527f64647265737300000000000000000000000000000000000000000000000000006020830152604082019050919050565b6000611b9b601f83612187565b91507f6c6520766f7465206e27612070617320656e636f726520636f6d6d656e6365006000830152602082019050919050565b6000611bdb601883612187565b91507f7573616765722064656a6120656e72656e6769737472652100000000000000006000830152602082019050919050565b6000611c1b601c83612187565b91507f6c65206465706f74206e2065737420706c757320706f737369626c65000000006000830152602082019050919050565b6000611c5b602d83612187565b91507f6c6520636f6d7074616765206e206573742070617320706f737369626c65207060008301527f6f7572206c65206d6f6d656e74000000000000000000000000000000000000006020830152604082019050919050565b6000611cc1602583612187565b91507f54686973206164647265737320697320616c72656164792077686974656c697360008301527f74656420210000000000000000000000000000000000000000000000000000006020830152604082019050919050565b6000611d27602083612187565b91507f4f776e61626c653a2063616c6c6572206973206e6f7420746865206f776e65726000830152602082019050919050565b6000611d67600c83612187565b91507f612064656a6120766f74652e00000000000000000000000000000000000000006000830152602082019050919050565b60006040830160008301518482036000860152611db78282611a76565b9150506020830151611dcc6020860182611dd7565b508091505092915050565b611de0816121e9565b82525050565b611def816121e9565b82525050565b6000602082019050611e0a6000830184611976565b92915050565b6000604082019050611e256000830185611976565b611e326020830184611de6565b9392505050565b60006020820190508181036000830152611e538184611985565b905092915050565b60006020820190508181036000830152611e7581846119e3565b905092915050565b6000602082019050611e926000830184611a58565b92915050565b6000606082019050611ead6000830186611a58565b611eba6020830185611a58565b611ec76040830184611de6565b949350505050565b6000602082019050611ee46000830184611a67565b92915050565b6000604082019050611eff6000830185611a67565b611f0c6020830184611a67565b9392505050565b60006020820190508181036000830152611f2d8184611aaf565b905092915050565b60006040820190508181036000830152611f4f8185611aaf565b9050611f5e6020830184611de6565b9392505050565b60006020820190508181036000830152611f7e81611ae8565b9050919050565b60006020820190508181036000830152611f9e81611b28565b9050919050565b60006020820190508181036000830152611fbe81611b8e565b9050919050565b60006020820190508181036000830152611fde81611bce565b9050919050565b60006020820190508181036000830152611ffe81611c0e565b9050919050565b6000602082019050818103600083015261201e81611c4e565b9050919050565b6000602082019050818103600083015261203e81611cb4565b9050919050565b6000602082019050818103600083015261205e81611d1a565b9050919050565b6000602082019050818103600083015261207e81611d5a565b9050919050565b600060208201905061209a6000830184611de6565b92915050565b6000604051905081810181811067ffffffffffffffff821117156120c357600080fd5b8060405250919050565b600067ffffffffffffffff8211156120e457600080fd5b601f19601f8301169050602081019050919050565b6000819050602082019050919050565b6000819050602082019050919050565b600081519050919050565b600081519050919050565b600081519050919050565b6000602082019050919050565b6000602082019050919050565b600082825260208201905092915050565b600082825260208201905092915050565b600082825260208201905092915050565b600082825260208201905092915050565b60006121a3826121c9565b9050919050565b60008115159050919050565b60008190506121c482612258565b919050565b600073ffffffffffffffffffffffffffffffffffffffff82169050919050565b6000819050919050565b60006121fe826121b6565b9050919050565b82818337600083830152505050565b60005b83811015612232578082015181840152602081019050612217565b83811115612241576000848401525b50505050565b6000601f19601f8301169050919050565b6006811061226257fe5b50565b61226e81612198565b811461227957600080fd5b50565b612285816121e9565b811461229057600080fd5b5056fea2646970667358221220e9fddb5f3090f61c967868695e7c86591ada0d86749713ef5fc3f8997cb161a064736f6c634300060b0033",
  "immutableReferences": {},
  "source": "// SPDX-License-Identifier: MIT\npragma solidity ^0.6.11;\npragma experimental ABIEncoderV2;\n\nimport \"./Whitelist.sol\";\nimport \"./Ownable.sol\";\n\n\ncontract Voting is Whitelist, Ownable{\naddress public Admin;\nmapping(address => Voter) public voters;\nevent Proposer(string  names);\n\n \n// Type pour une proposition.\nstruct Proposal {\nstring name;\nuint voteCount;}\n\n\nstruct Voter {\nbool isRegistered;\nbool hasVoted;\nuint votedProposalId;}\n\n\n// Un tableau dynamique de structs `Proposal`.\nProposal[] public proposals;\n\nevent VoterRegistered(address voterAddress);\nevent ProposalsRegistrationStarted();\nevent ProposalsRegistrationEnded();\nevent ProposalRegistered(string name);\nevent VotingSessionStarted();\nevent VotingSessionEnded();\nevent Voted (address voter, uint proposalId);\nevent VoteAdded (Proposal Prop);\nevent VotesTallied();\n\n\nenum WorkflowStatus {\nRegisteringVoters,\nProposalsRegistrationStarted,\nProposalsRegistrationEnded,\nVotingSessionStarted,\nVotingSessionEnded,\nVotesTallied}\n      \n\t  // Le workflow par dfaut,est le suivant :\nWorkflowStatus public workflowStatus= WorkflowStatus.RegisteringVoters;\n\nevent WorkflowStatusChange(WorkflowStatus previousStatus, WorkflowStatus newStatus);\n \nfunction nextStage() public onlyOwner {\nworkflowStatus = WorkflowStatus((uint(workflowStatus) + 1));\n   \n   if (workflowStatus == WorkflowStatus(1)) { emit ProposalsRegistrationStarted();}\n   if (workflowStatus == WorkflowStatus(2)) { emit ProposalsRegistrationEnded();}\n   if (workflowStatus == WorkflowStatus(3)) { emit VotingSessionStarted();}\n   if (workflowStatus == WorkflowStatus(4)) { emit VotingSessionEnded();}\n   if (workflowStatus == WorkflowStatus(5)) { emit VotesTallied();}\nemit WorkflowStatusChange(\nWorkflowStatus(uint(workflowStatus)-1),WorkflowStatus( uint(workflowStatus) ) );}\n\n\n   \nfunction isRegistered(address voterAddress) public onlyOwner {\n        Voter storage sender = voters[voterAddress];\n        require(!sender.isRegistered, \"usager deja enrengistre!\");\n       sender.isRegistered = true;\n\t   //appel  une fct du contrat parent \n        super.whitelist(voterAddress);\n        emit VoterRegistered(voterAddress); }    \n\nfunction getStatus() public view returns (WorkflowStatus) {\n    return workflowStatus;}\n\n\nfunction proposer(string  memory names) public {\n   Voter storage sender = voters[msg.sender];\n  assert(sender.isRegistered);\n  assert((workflowStatus ==WorkflowStatus(1)));\n   require(!(workflowStatus == WorkflowStatus(2)),   \"le depot n est plus possible\");\n   proposals.push(Proposal({name: names,voteCount: 0})  );\n   emit ProposalRegistered(names); \n            }\n\t\t\t\n    function  getPrp() public view  returns (Proposal[] memory names)\n{    return proposals ;\n}\n \n \n \n function voting(address voterAddress,uint votedProposalId) public {\n        Voter storage sender = voters[msg.sender];\n\t\trequire((workflowStatus == WorkflowStatus(3)),\"le vote n'a pas encore commence\");\n\t\trequire(!(workflowStatus == WorkflowStatus(4)),\"le vote est deja fini\");\n\t\trequire(!sender.hasVoted, \"a deja vote.\");\n \t    sender.hasVoted= true;\n        sender.votedProposalId = votedProposalId;\n\n        // Si `votedProposalId` n'est pas un index valide,\n        // une erreur sera leve et l'excution annule\n\n        proposals[votedProposalId].voteCount += 1;\n\t\temit Voted (voterAddress, votedProposalId);\n    }\n\t\n\t\n function getVote() public view returns (uint votedProposalId) {\n         return proposals[votedProposalId].voteCount;\n\n    }     \t\n\n\n function getYourVote(address voterAddress) public view returns (uint votedProposalId) {\n         return voters[voterAddress].votedProposalId;\n\n    } \n\n\n function gethasVoted(address voterAddress) public view returns (bool hasVoted) {\n         return voters[voterAddress].hasVoted;\n\n    } \n\n    ///  Calcule la proposition gagnante\n    /// en prenant tous les votes prcdents en compte.\n\t\n    function winningProposalID() public view\n            returns (uint winningProposalID_)\n    {require((workflowStatus == WorkflowStatus(5)),\n\t         \"le comptage n est pas possible pour le moment\");\n            uint winningVoteCount = 0;\n               for (uint p = 0; p < proposals.length; p++) {\n            if (proposals[p].voteCount > winningVoteCount) {\n                winningVoteCount = proposals[p].voteCount;\n                winningProposalID_ = p;\n             } \n        }\n    }\n\t\n\t  function winnerName() public view\n            returns (string memory winnerName_){\n        winnerName_ = proposals[winningProposalID()].name;\n    }\n}\n",
  "sourcePath": "/home/matthieu/Documents/Alyra/truffle/voting-react/contracts/Voting.sol",
  "compiler": {
    "name": "solc",
    "version": "0.6.11+commit.5ef660b1.Emscripten.clang"
  },
  "schemaVersion": "3.4.1",
  "updatedAt": "2021-11-12T15:05:07.888Z",
  "networkType": "ethereum",
  "devdoc": {
    "kind": "dev",
    "methods": {
      "owner()": {
        "details": "Returns the address of the current owner."
      },
      "renounceOwnership()": {
        "details": "Leaves the contract without owner. It will not be possible to call `onlyOwner` functions anymore. Can only be called by the current owner. NOTE: Renouncing ownership will leave the contract without an owner, thereby removing any functionality that is only available to the owner."
      },
      "transferOwnership(address)": {
        "details": "Transfers ownership of the contract to a new account (`newOwner`). Can only be called by the current owner."
      }
    },
    "version": 1
  },
  "userdoc": {
    "kind": "user",
    "methods": {
      "winningProposalID()": {
        "notice": "Calcule la proposition gagnante en prenant tous les votes prcdents en compte."
      }
    },
    "version": 1
  }
}