{
  "contractName": "Voting",
  "abi": [
    {
      "anonymous": false,
      "inputs": [
        {
          "indexed": true,
          "internalType": "address",
          "name": "previousOwner",
          "type": "address"
        },
        {
          "indexed": true,
          "internalType": "address",
          "name": "newOwner",
          "type": "address"
        }
      ],
      "name": "OwnershipTransferred",
      "type": "event"
    },
    {
      "anonymous": false,
      "inputs": [
        {
          "indexed": false,
          "internalType": "string",
          "name": "name",
          "type": "string"
        }
      ],
      "name": "ProposalRegistered",
      "type": "event"
    },
    {
      "anonymous": false,
      "inputs": [],
      "name": "ProposalsRegistrationEnded",
      "type": "event"
    },
    {
      "anonymous": false,
      "inputs": [],
      "name": "ProposalsRegistrationStarted",
      "type": "event"
    },
    {
      "anonymous": false,
      "inputs": [
        {
          "indexed": false,
          "internalType": "string",
          "name": "names",
          "type": "string"
        }
      ],
      "name": "Proposer",
      "type": "event"
    },
    {
      "anonymous": false,
      "inputs": [
        {
          "indexed": false,
          "internalType": "address",
          "name": "voter",
          "type": "address"
        },
        {
          "indexed": false,
          "internalType": "uint256",
          "name": "proposalId",
          "type": "uint256"
        }
      ],
      "name": "Voted",
      "type": "event"
    },
    {
      "anonymous": false,
      "inputs": [
        {
          "indexed": false,
          "internalType": "address",
          "name": "voterAddress",
          "type": "address"
        }
      ],
      "name": "VoterRegistered",
      "type": "event"
    },
    {
      "anonymous": false,
      "inputs": [],
      "name": "VotesTallied",
      "type": "event"
    },
    {
      "anonymous": false,
      "inputs": [],
      "name": "VotingSessionEnded",
      "type": "event"
    },
    {
      "anonymous": false,
      "inputs": [],
      "name": "VotingSessionStarted",
      "type": "event"
    },
    {
      "anonymous": false,
      "inputs": [
        {
          "indexed": false,
          "internalType": "address",
          "name": "_address",
          "type": "address"
        }
      ],
      "name": "Whitelisted",
      "type": "event"
    },
    {
      "anonymous": false,
      "inputs": [
        {
          "indexed": false,
          "internalType": "enum Voting.WorkflowStatus",
          "name": "previousStatus",
          "type": "uint8"
        },
        {
          "indexed": false,
          "internalType": "enum Voting.WorkflowStatus",
          "name": "newStatus",
          "type": "uint8"
        }
      ],
      "name": "WorkflowStatusChange",
      "type": "event"
    },
    {
      "inputs": [],
      "name": "Admin",
      "outputs": [
        {
          "internalType": "address",
          "name": "",
          "type": "address"
        }
      ],
      "stateMutability": "view",
      "type": "function",
      "constant": true
    },
    {
      "inputs": [
        {
          "internalType": "address",
          "name": "",
          "type": "address"
        }
      ],
      "name": "_whitelist",
      "outputs": [
        {
          "internalType": "bool",
          "name": "",
          "type": "bool"
        }
      ],
      "stateMutability": "view",
      "type": "function",
      "constant": true
    },
    {
      "inputs": [
        {
          "internalType": "uint256",
          "name": "",
          "type": "uint256"
        }
      ],
      "name": "addresses",
      "outputs": [
        {
          "internalType": "address",
          "name": "",
          "type": "address"
        }
      ],
      "stateMutability": "view",
      "type": "function",
      "constant": true
    },
    {
      "inputs": [],
      "name": "getAddresses",
      "outputs": [
        {
          "internalType": "address[]",
          "name": "",
          "type": "address[]"
        }
      ],
      "stateMutability": "view",
      "type": "function",
      "constant": true
    },
    {
      "inputs": [],
      "name": "owner",
      "outputs": [
        {
          "internalType": "address",
          "name": "",
          "type": "address"
        }
      ],
      "stateMutability": "view",
      "type": "function",
      "constant": true
    },
    {
      "inputs": [
        {
          "internalType": "uint256",
          "name": "",
          "type": "uint256"
        }
      ],
      "name": "proposals",
      "outputs": [
        {
          "internalType": "string",
          "name": "name",
          "type": "string"
        },
        {
          "internalType": "uint256",
          "name": "voteCount",
          "type": "uint256"
        }
      ],
      "stateMutability": "view",
      "type": "function",
      "constant": true
    },
    {
      "inputs": [],
      "name": "renounceOwnership",
      "outputs": [],
      "stateMutability": "nonpayable",
      "type": "function"
    },
    {
      "inputs": [
        {
          "internalType": "address",
          "name": "newOwner",
          "type": "address"
        }
      ],
      "name": "transferOwnership",
      "outputs": [],
      "stateMutability": "nonpayable",
      "type": "function"
    },
    {
      "inputs": [
        {
          "internalType": "address",
          "name": "",
          "type": "address"
        }
      ],
      "name": "voters",
      "outputs": [
        {
          "internalType": "bool",
          "name": "isRegistered",
          "type": "bool"
        },
        {
          "internalType": "bool",
          "name": "hasVoted",
          "type": "bool"
        },
        {
          "internalType": "uint256",
          "name": "votedProposalId",
          "type": "uint256"
        }
      ],
      "stateMutability": "view",
      "type": "function",
      "constant": true
    },
    {
      "inputs": [
        {
          "internalType": "address",
          "name": "_address",
          "type": "address"
        }
      ],
      "name": "whitelist",
      "outputs": [],
      "stateMutability": "nonpayable",
      "type": "function"
    },
    {
      "inputs": [],
      "name": "workflowStatus",
      "outputs": [
        {
          "internalType": "enum Voting.WorkflowStatus",
          "name": "",
          "type": "uint8"
        }
      ],
      "stateMutability": "view",
      "type": "function",
      "constant": true
    },
    {
      "inputs": [],
      "name": "nextStage",
      "outputs": [],
      "stateMutability": "nonpayable",
      "type": "function"
    },
    {
      "inputs": [
        {
          "internalType": "address",
          "name": "voterAddress",
          "type": "address"
        }
      ],
      "name": "isRegistered",
      "outputs": [],
      "stateMutability": "nonpayable",
      "type": "function"
    },
    {
      "inputs": [],
      "name": "getStatus",
      "outputs": [
        {
          "internalType": "enum Voting.WorkflowStatus",
          "name": "",
          "type": "uint8"
        }
      ],
      "stateMutability": "view",
      "type": "function",
      "constant": true
    },
    {
      "inputs": [
        {
          "internalType": "string",
          "name": "names",
          "type": "string"
        }
      ],
      "name": "proposer",
      "outputs": [],
      "stateMutability": "nonpayable",
      "type": "function"
    },
    {
      "inputs": [],
      "name": "getPrp",
      "outputs": [
        {
          "components": [
            {
              "internalType": "string",
              "name": "name",
              "type": "string"
            },
            {
              "internalType": "uint256",
              "name": "voteCount",
              "type": "uint256"
            }
          ],
          "internalType": "struct Voting.Proposal[]",
          "name": "names",
          "type": "tuple[]"
        }
      ],
      "stateMutability": "view",
      "type": "function",
      "constant": true
    },
    {
      "inputs": [
        {
          "internalType": "address",
          "name": "voterAddress",
          "type": "address"
        },
        {
          "internalType": "uint256",
          "name": "votedProposalId",
          "type": "uint256"
        }
      ],
      "name": "voting",
      "outputs": [],
      "stateMutability": "nonpayable",
      "type": "function"
    },
    {
      "inputs": [],
      "name": "getVote",
      "outputs": [
        {
          "internalType": "uint256",
          "name": "votedProposalId",
          "type": "uint256"
        }
      ],
      "stateMutability": "view",
      "type": "function",
      "constant": true
    },
    {
      "inputs": [],
      "name": "winningProposalID",
      "outputs": [
        {
          "internalType": "uint256",
          "name": "winningProposalID_",
          "type": "uint256"
        }
      ],
      "stateMutability": "view",
      "type": "function",
      "constant": true
    },
    {
      "inputs": [],
      "name": "winnerName",
      "outputs": [
        {
          "internalType": "string",
          "name": "winnerName_",
          "type": "string"
        }
      ],
      "stateMutability": "view",
      "type": "function",
      "constant": true
    }
  ],
  "bytecode": "0x60806040526000600660006101000a81548160ff0219169083600581111561002357fe5b021790555034801561003457600080fd5b50600061004e6100f2640100000000026401000000009004565b905080600260006101000a81548173ffffffffffffffffffffffffffffffffffffffff021916908373ffffffffffffffffffffffffffffffffffffffff1602179055508073ffffffffffffffffffffffffffffffffffffffff16600073ffffffffffffffffffffffffffffffffffffffff167f8be0079c531659141344cd1fd0a4f28419497f9722a3daafe3b4186f6b6457e060405160405180910390a3506100fa565b600033905090565b61223c806101096000396000f3fe608060405234801561001057600080fd5b5060043610610149576000357c010000000000000000000000000000000000000000000000000000000090048063ab31e9ae116100ca578063edf26d9b1161008e578063edf26d9b1461032d578063ee3743ab1461035d578063f0aad62414610367578063f2fde38b14610385578063ff1b636d146103a157610149565b8063ab31e9ae14610289578063bdc01431146102a5578063c3c5a547146102c3578063cfdb63ac146102df578063e2ba53f01461030f57610149565b80638da5cb5b116101115780638da5cb5b146101e15780639b19251a146101ff578063a1edffa21461021b578063a39fac1214610239578063a3ec138d1461025757610149565b8063013cf08b1461014e5780630242f3511461017f5780632f558a8f1461019d5780634e69d560146101b9578063715018a6146101d7575b600080fd5b61016860048036038101906101639190611825565b6103bf565b604051610176929190611e72565b60405180910390f35b610187610488565b6040516101949190611fc2565b60405180910390f35b6101b760048036038101906101b291906117a8565b6104ae565b005b6101c16106b2565b6040516101ce9190611e0c565b60405180910390f35b6101df6106c9565b005b6101e9610821565b6040516101f69190611d17565b60405180910390f35b6102196004803603810190610214919061177f565b61084b565b005b6102236109cb565b6040516102309190611e0c565b60405180910390f35b6102416109de565b60405161024e9190611d76565b60405180910390f35b610271600480360381019061026c919061177f565b610a6c565b60405161028093929190611dd5565b60405180910390f35b6102a3600480360381019061029e91906117e4565b610ab0565b005b6102ad610c5e565b6040516102ba9190611fc2565b60405180910390f35b6102dd60048036038101906102d8919061177f565b610d47565b005b6102f960048036038101906102f4919061177f565b610ed4565b6040516103069190611dba565b60405180910390f35b610317610ef4565b6040516103249190611e50565b60405180910390f35b61034760048036038101906103429190611825565b610fb9565b6040516103549190611d17565b60405180910390f35b610365610ff5565b005b61036f61135c565b60405161037c9190611d98565b60405180910390f35b61039f600480360381019061039a919061177f565b611467565b005b6103a961162e565b6040516103b69190611d17565b60405180910390f35b600581815481106103cc57fe5b9060005260206000209060020201600091509050806000018054600181600116156101000203166002900480601f0160208091040260200160405190810160405280929190818152602001828054600181600116156101000203166002900480156104785780601f1061044d57610100808354040283529160200191610478565b820191906000526020600020905b81548152906001019060200180831161045b57829003601f168201915b5050505050908060010154905082565b60006005818154811061049757fe5b906000526020600020906002020160010154905090565b6000600460003373ffffffffffffffffffffffffffffffffffffffff1673ffffffffffffffffffffffffffffffffffffffff1681526020019081526020016000209050600360058111156104fe57fe5b600581111561050957fe5b600660009054906101000a900460ff16600581111561052457fe5b14610564576040517f08c379a000000000000000000000000000000000000000000000000000000000815260040161055b90611ee2565b60405180910390fd5b6004600581111561057157fe5b600581111561057c57fe5b600660009054906101000a900460ff16600581111561059757fe5b14156105d8576040517f08c379a00000000000000000000000000000000000000000000000000000000081526004016105cf90611ea2565b60405180910390fd5b8060000160019054906101000a900460ff161561062a576040517f08c379a000000000000000000000000000000000000000000000000000000000815260040161062190611fa2565b60405180910390fd5b60018160000160016101000a81548160ff02191690831515021790555060016005838154811061065657fe5b9060005260206000209060020201600101600082825401925050819055507f4d99b957a2bc29a30ebd96a7be8e68fe50a3c701db28a91436490b7d53870ca483836040516106a5929190611d4d565b60405180910390a1505050565b6000600660009054906101000a900460ff16905090565b6106d1611654565b73ffffffffffffffffffffffffffffffffffffffff16600260009054906101000a900473ffffffffffffffffffffffffffffffffffffffff1673ffffffffffffffffffffffffffffffffffffffff1614610760576040517f08c379a000000000000000000000000000000000000000000000000000000000815260040161075790611f82565b60405180910390fd5b600073ffffffffffffffffffffffffffffffffffffffff16600260009054906101000a900473ffffffffffffffffffffffffffffffffffffffff1673ffffffffffffffffffffffffffffffffffffffff167f8be0079c531659141344cd1fd0a4f28419497f9722a3daafe3b4186f6b6457e060405160405180910390a36000600260006101000a81548173ffffffffffffffffffffffffffffffffffffffff021916908373ffffffffffffffffffffffffffffffffffffffff160217905550565b6000600260009054906101000a900473ffffffffffffffffffffffffffffffffffffffff16905090565b6000808273ffffffffffffffffffffffffffffffffffffffff1673ffffffffffffffffffffffffffffffffffffffff16815260200190815260200160002060009054906101000a900460ff16156108d7576040517f08c379a00000000000000000000000000000000000000000000000000000000081526004016108ce90611f62565b60405180910390fd5b60016000808373ffffffffffffffffffffffffffffffffffffffff1673ffffffffffffffffffffffffffffffffffffffff16815260200190815260200160002060006101000a81548160ff0219169083151502179055506001819080600181540180825580915050600190039060005260206000200160009091909190916101000a81548173ffffffffffffffffffffffffffffffffffffffff021916908373ffffffffffffffffffffffffffffffffffffffff1602179055507faab7954e9d246b167ef88aeddad35209ca2489d95a8aeb59e288d9b19fae5a54816040516109c09190611d17565b60405180910390a150565b600660009054906101000a900460ff1681565b60606001805480602002602001604051908101604052809291908181526020018280548015610a6257602002820191906000526020600020905b8160009054906101000a900473ffffffffffffffffffffffffffffffffffffffff1673ffffffffffffffffffffffffffffffffffffffff1681526020019060010190808311610a18575b5050505050905090565b60046020528060005260406000206000915090508060000160009054906101000a900460ff16908060000160019054906101000a900460ff16908060010154905083565b6000600460003373ffffffffffffffffffffffffffffffffffffffff1673ffffffffffffffffffffffffffffffffffffffff16815260200190815260200160002090508060000160009054906101000a900460ff16610b0b57fe5b60016005811115610b1857fe5b6005811115610b2357fe5b600660009054906101000a900460ff166005811115610b3e57fe5b14610b4557fe5b60026005811115610b5257fe5b6005811115610b5d57fe5b600660009054906101000a900460ff166005811115610b7857fe5b1415610bb9576040517f08c379a0000000000000000000000000000000000000000000000000000000008152600401610bb090611f22565b60405180910390fd5b60056040518060400160405280848152602001600081525090806001815401808255809150506001900390600052602060002090600202016000909190919091506000820151816000019080519060200190610c1692919061165c565b506020820151816001015550507fb6be2187d059cc2a55fe29e0e503b566e1e0f8c8780096e185429350acffd3dd33604051610c529190611d32565b60405180910390a15050565b6000600580811115610c6c57fe5b6005811115610c7757fe5b600660009054906101000a900460ff166005811115610c9257fe5b14610cd2576040517f08c379a0000000000000000000000000000000000000000000000000000000008152600401610cc990611f42565b60405180910390fd5b600080905060008090505b600580549050811015610d42578160058281548110610cf857fe5b9060005260206000209060020201600101541115610d355760058181548110610d1d57fe5b90600052602060002090600202016001015491508092505b8080600101915050610cdd565b505090565b610d4f611654565b73ffffffffffffffffffffffffffffffffffffffff16600260009054906101000a900473ffffffffffffffffffffffffffffffffffffffff1673ffffffffffffffffffffffffffffffffffffffff1614610dde576040517f08c379a0000000000000000000000000000000000000000000000000000000008152600401610dd590611f82565b60405180910390fd5b6000600460008373ffffffffffffffffffffffffffffffffffffffff1673ffffffffffffffffffffffffffffffffffffffff16815260200190815260200160002090508060000160009054906101000a900460ff1615610e73576040517f08c379a0000000000000000000000000000000000000000000000000000000008152600401610e6a90611f02565b60405180910390fd5b60018160000160006101000a81548160ff021916908315150217905550610e998261084b565b7fb6be2187d059cc2a55fe29e0e503b566e1e0f8c8780096e185429350acffd3dd82604051610ec89190611d17565b60405180910390a15050565b60006020528060005260406000206000915054906101000a900460ff1681565b60606005610f00610c5e565b81548110610f0a57fe5b90600052602060002090600202016000018054600181600116156101000203166002900480601f016020809104026020016040519081016040528092919081815260200182805460018160011615610100020316600290048015610faf5780601f10610f8457610100808354040283529160200191610faf565b820191906000526020600020905b815481529060010190602001808311610f9257829003601f168201915b5050505050905090565b60018181548110610fc657fe5b906000526020600020016000915054906101000a900473ffffffffffffffffffffffffffffffffffffffff1681565b610ffd611654565b73ffffffffffffffffffffffffffffffffffffffff16600260009054906101000a900473ffffffffffffffffffffffffffffffffffffffff1673ffffffffffffffffffffffffffffffffffffffff161461108c576040517f08c379a000000000000000000000000000000000000000000000000000000000815260040161108390611f82565b60405180910390fd5b6001600660009054906101000a900460ff1660058111156110a957fe5b0160058111156110b557fe5b600660006101000a81548160ff021916908360058111156110d257fe5b0217905550600160058111156110e457fe5b60058111156110ef57fe5b600660009054906101000a900460ff16600581111561110a57fe5b141561113d577f344c25562921d075a298d34b6dd1fd00d36ff293974539dfd4a8c625d9f0064c60405160405180910390a15b6002600581111561114a57fe5b600581111561115557fe5b600660009054906101000a900460ff16600581111561117057fe5b14156111a3577f240cb87b2e4df4c318e72bd714d45a9cad60249e883ff56b1fffd83a4595a8fa60405160405180910390a15b600360058111156111b057fe5b60058111156111bb57fe5b600660009054906101000a900460ff1660058111156111d657fe5b1415611209577f1b8e19a458c1bcd88553332c518cc5c4e2d5793e712ee766d4f1c14f672ef1f560405160405180910390a15b6004600581111561121657fe5b600581111561122157fe5b600660009054906101000a900460ff16600581111561123c57fe5b141561126f577fc379d349a6301baf50fb2f98d829f4ae10b1cdb7c66f4e4d8117302df7b8cd4c60405160405180910390a15b60058081111561127b57fe5b600581111561128657fe5b600660009054906101000a900460ff1660058111156112a157fe5b14156112d4577f0e5e95ff8725ab3e7a4b6b59998a4c344c2aa8d1485f5e60cb7f337768e6134760405160405180910390a15b7f0a97a4ee45751e2abf3e4fc8946939630b11b371ea8ae39ccdc3056e98f5cc3f6001600660009054906101000a900460ff16600581111561131257fe5b03600581111561131e57fe5b600660009054906101000a900460ff16600581111561133957fe5b600581111561134457fe5b604051611352929190611e27565b60405180910390a1565b60606005805480602002602001604051908101604052809291908181526020016000905b8282101561145e5783829060005260206000209060020201604051806040016040529081600082018054600181600116156101000203166002900480601f01602080910402602001604051908101604052809291908181526020018280546001816001161561010002031660029004801561143c5780601f106114115761010080835404028352916020019161143c565b820191906000526020600020905b81548152906001019060200180831161141f57829003601f168201915b5050505050815260200160018201548152505081526020019060010190611380565b50505050905090565b61146f611654565b73ffffffffffffffffffffffffffffffffffffffff16600260009054906101000a900473ffffffffffffffffffffffffffffffffffffffff1673ffffffffffffffffffffffffffffffffffffffff16146114fe576040517f08c379a00000000000000000000000000000000000000000000000000000000081526004016114f590611f82565b60405180910390fd5b600073ffffffffffffffffffffffffffffffffffffffff168173ffffffffffffffffffffffffffffffffffffffff16141561156e576040517f08c379a000000000000000000000000000000000000000000000000000000000815260040161156590611ec2565b60405180910390fd5b8073ffffffffffffffffffffffffffffffffffffffff16600260009054906101000a900473ffffffffffffffffffffffffffffffffffffffff1673ffffffffffffffffffffffffffffffffffffffff167f8be0079c531659141344cd1fd0a4f28419497f9722a3daafe3b4186f6b6457e060405160405180910390a380600260006101000a81548173ffffffffffffffffffffffffffffffffffffffff021916908373ffffffffffffffffffffffffffffffffffffffff16021790555050565b600360009054906101000a900473ffffffffffffffffffffffffffffffffffffffff1681565b600033905090565b828054600181600116156101000203166002900490600052602060002090601f016020900481019282601f1061169d57805160ff19168380011785556116cb565b828001600101855582156116cb579182015b828111156116ca5782518255916020019190600101906116af565b5b5090506116d891906116dc565b5090565b6116fe91905b808211156116fa5760008160009055506001016116e2565b5090565b90565b600081359050611710816121d8565b92915050565b600082601f83011261172757600080fd5b813561173a6117358261200a565b611fdd565b9150808252602083016020830185838301111561175657600080fd5b611761838284612178565b50505092915050565b600081359050611779816121ef565b92915050565b60006020828403121561179157600080fd5b600061179f84828501611701565b91505092915050565b600080604083850312156117bb57600080fd5b60006117c985828601611701565b92505060206117da8582860161176a565b9150509250929050565b6000602082840312156117f657600080fd5b600082013567ffffffffffffffff81111561181057600080fd5b61181c84828501611716565b91505092915050565b60006020828403121561183757600080fd5b60006118458482850161176a565b91505092915050565b600061185a8383611889565b60208301905092915050565b60006118728383611cbc565b905092915050565b61188381612130565b82525050565b611892816120d5565b82525050565b6118a1816120d5565b82525050565b60006118b282612056565b6118bc8185612091565b93506118c783612036565b8060005b838110156118f85781516118df888261184e565b97506118ea83612077565b9250506001810190506118cb565b5085935050505092915050565b600061191082612061565b61191a81856120a2565b93508360208202850161192c85612046565b8060005b8581101561196857848403895281516119498582611866565b945061195483612084565b925060208a01995050600181019050611930565b50829750879550505050505092915050565b611983816120e7565b82525050565b61199281612142565b82525050565b60006119a38261206c565b6119ad81856120b3565b93506119bd818560208601612187565b6119c6816121ba565b840191505092915050565b60006119dc8261206c565b6119e681856120c4565b93506119f6818560208601612187565b6119ff816121ba565b840191505092915050565b6000611a176015836120c4565b91507f6c6520766f7465206573742064656a612066696e6900000000000000000000006000830152602082019050919050565b6000611a576026836120c4565b91507f4f776e61626c653a206e6577206f776e657220697320746865207a65726f206160008301527f64647265737300000000000000000000000000000000000000000000000000006020830152604082019050919050565b6000611abd601f836120c4565b91507f6c6520766f7465206e27612070617320656e636f726520636f6d6d656e6365006000830152602082019050919050565b6000611afd6018836120c4565b91507f7573616765722064656a6120656e72656e6769737472652100000000000000006000830152602082019050919050565b6000611b3d601c836120c4565b91507f6c65206465706f74206e2065737420706c757320706f737369626c65000000006000830152602082019050919050565b6000611b7d602d836120c4565b91507f6c6520636f6d7074616765206e206573742070617320706f737369626c65207060008301527f6f7572206c65206d6f6d656e74000000000000000000000000000000000000006020830152604082019050919050565b6000611be36025836120c4565b91507f54686973206164647265737320697320616c72656164792077686974656c697360008301527f74656420210000000000000000000000000000000000000000000000000000006020830152604082019050919050565b6000611c496020836120c4565b91507f4f776e61626c653a2063616c6c6572206973206e6f7420746865206f776e65726000830152602082019050919050565b6000611c89600c836120c4565b91507f612064656a6120766f74652e00000000000000000000000000000000000000006000830152602082019050919050565b60006040830160008301518482036000860152611cd98282611998565b9150506020830151611cee6020860182611cf9565b508091505092915050565b611d0281612126565b82525050565b611d1181612126565b82525050565b6000602082019050611d2c6000830184611898565b92915050565b6000602082019050611d47600083018461187a565b92915050565b6000604082019050611d626000830185611898565b611d6f6020830184611d08565b9392505050565b60006020820190508181036000830152611d9081846118a7565b905092915050565b60006020820190508181036000830152611db28184611905565b905092915050565b6000602082019050611dcf600083018461197a565b92915050565b6000606082019050611dea600083018661197a565b611df7602083018561197a565b611e046040830184611d08565b949350505050565b6000602082019050611e216000830184611989565b92915050565b6000604082019050611e3c6000830185611989565b611e496020830184611989565b9392505050565b60006020820190508181036000830152611e6a81846119d1565b905092915050565b60006040820190508181036000830152611e8c81856119d1565b9050611e9b6020830184611d08565b9392505050565b60006020820190508181036000830152611ebb81611a0a565b9050919050565b60006020820190508181036000830152611edb81611a4a565b9050919050565b60006020820190508181036000830152611efb81611ab0565b9050919050565b60006020820190508181036000830152611f1b81611af0565b9050919050565b60006020820190508181036000830152611f3b81611b30565b9050919050565b60006020820190508181036000830152611f5b81611b70565b9050919050565b60006020820190508181036000830152611f7b81611bd6565b9050919050565b60006020820190508181036000830152611f9b81611c3c565b9050919050565b60006020820190508181036000830152611fbb81611c7c565b9050919050565b6000602082019050611fd76000830184611d08565b92915050565b6000604051905081810181811067ffffffffffffffff8211171561200057600080fd5b8060405250919050565b600067ffffffffffffffff82111561202157600080fd5b601f19601f8301169050602081019050919050565b6000819050602082019050919050565b6000819050602082019050919050565b600081519050919050565b600081519050919050565b600081519050919050565b6000602082019050919050565b6000602082019050919050565b600082825260208201905092915050565b600082825260208201905092915050565b600082825260208201905092915050565b600082825260208201905092915050565b60006120e082612106565b9050919050565b60008115159050919050565b6000819050612101826121cb565b919050565b600073ffffffffffffffffffffffffffffffffffffffff82169050919050565b6000819050919050565b600061213b82612154565b9050919050565b600061214d826120f3565b9050919050565b600061215f82612166565b9050919050565b600061217182612106565b9050919050565b82818337600083830152505050565b60005b838110156121a557808201518184015260208101905061218a565b838111156121b4576000848401525b50505050565b6000601f19601f8301169050919050565b600681106121d557fe5b50565b6121e1816120d5565b81146121ec57600080fd5b50565b6121f881612126565b811461220357600080fd5b5056fea26469706673582212205dc4e8389188644fdf206f5c6503baa38cea629200b902ba5e9a954c229ac04064736f6c634300060b0033",
  "immutableReferences": {},
  "source": "// SPDX-License-Identifier: MIT\npragma solidity ^0.6.11;\npragma experimental ABIEncoderV2;\n\nimport \"./Whitelist.sol\";\nimport \"./Ownable.sol\";\n\n\ncontract Voting is Whitelist, Ownable{\naddress public Admin;\nmapping(address => Voter) public voters;\nevent Proposer(string  names);\n\n \n// Type pour une proposition.\nstruct Proposal {\nstring name;\nuint voteCount;}\n\n\nstruct Voter {\nbool isRegistered;\nbool hasVoted;\nuint votedProposalId;}\n\n\n// Un tableau dynamique de structs `Proposal`.\nProposal[] public proposals;\n\nevent VoterRegistered(address voterAddress);\nevent ProposalsRegistrationStarted();\nevent ProposalsRegistrationEnded();\nevent ProposalRegistered(string name);\nevent VotingSessionStarted();\nevent VotingSessionEnded();\nevent Voted (address voter, uint proposalId);\nevent VotesTallied();\n\n\nenum WorkflowStatus {\nRegisteringVoters,\nProposalsRegistrationStarted,\nProposalsRegistrationEnded,\nVotingSessionStarted,\nVotingSessionEnded,\nVotesTallied}\n      \n\t  // Le workflow par dfaut,est le suivant :\nWorkflowStatus public workflowStatus= WorkflowStatus.RegisteringVoters;\n\nevent WorkflowStatusChange(WorkflowStatus previousStatus, WorkflowStatus newStatus);\n \nfunction nextStage() public onlyOwner {\nworkflowStatus = WorkflowStatus((uint(workflowStatus) + 1));\n   \n   if (workflowStatus == WorkflowStatus(1)) { emit ProposalsRegistrationStarted();}\n   if (workflowStatus == WorkflowStatus(2)) { emit ProposalsRegistrationEnded();}\n   if (workflowStatus == WorkflowStatus(3)) { emit VotingSessionStarted();}\n   if (workflowStatus == WorkflowStatus(4)) { emit VotingSessionEnded();}\n   if (workflowStatus == WorkflowStatus(5)) { emit VotesTallied();}\nemit WorkflowStatusChange(\nWorkflowStatus(uint(workflowStatus)-1),WorkflowStatus( uint(workflowStatus) ) );}\n\n\n   \nfunction isRegistered(address voterAddress) public onlyOwner {\n        Voter storage sender = voters[voterAddress];\n        require(!sender.isRegistered, \"usager deja enrengistre!\");\n       sender.isRegistered = true;\n\t   //appel  une fct du contrat parent \n        super.whitelist(voterAddress);\n        emit VoterRegistered(voterAddress); }    \n\nfunction getStatus() public view returns (WorkflowStatus) {\n    return workflowStatus;}\n\n\nfunction proposer(string  memory names) public {\n   Voter storage sender = voters[msg.sender];\n  assert(sender.isRegistered);\n  assert((workflowStatus ==WorkflowStatus(1)));\n   require(!(workflowStatus == WorkflowStatus(2)),   \"le depot n est plus possible\");\n   proposals.push(Proposal({name: names,voteCount: 0})  );\n   emit VoterRegistered(msg.sender); \n            }\n\t\t\t\n    function  getPrp() public view  returns (Proposal[] memory names)\n{    return proposals ;\n}\n \n \n \n function voting(address voterAddress,uint votedProposalId) public {\n        Voter storage sender = voters[msg.sender];\n\t\trequire((workflowStatus == WorkflowStatus(3)),\"le vote n'a pas encore commence\");\n\t\trequire(!(workflowStatus == WorkflowStatus(4)),\"le vote est deja fini\");\n\t\trequire(!sender.hasVoted, \"a deja vote.\");\n \t    sender.hasVoted= true;\n        //sender.vote= votedProposalId;\n\n        // Si `votedProposalId` n'est pas un index valide,\n        // une erreur sera leve et l'excution annule\n\n        proposals[votedProposalId].voteCount += 1;\n\t\temit Voted (voterAddress, votedProposalId);\n    }\n\t\n\t\n function getVote() public view returns (uint votedProposalId) {\n         return proposals[votedProposalId].voteCount;\n\n    }     \t\n\n    ///  Calcule la proposition gagnante\n    /// en prenant tous les votes prcdents en compte.\n\t\n    function winningProposalID() public view\n            returns (uint winningProposalID_)\n    {require((workflowStatus == WorkflowStatus(5)),\n\t         \"le comptage n est pas possible pour le moment\");\n            uint winningVoteCount = 0;\n               for (uint p = 0; p < proposals.length; p++) {\n            if (proposals[p].voteCount > winningVoteCount) {\n                winningVoteCount = proposals[p].voteCount;\n                winningProposalID_ = p;\n             } \n        }\n    }\n\t\n\t  function winnerName() public view\n            returns (string memory winnerName_){\n        winnerName_ = proposals[winningProposalID()].name;\n    }\n}\n",
  "sourcePath": "/home/matthieu/Documents/Alyra/truffle/voting-react/contracts/Voting.sol",
  "compiler": {
    "name": "solc",
    "version": "0.6.11+commit.5ef660b1.Emscripten.clang"
  },
  "schemaVersion": "3.4.1",
  "updatedAt": "2021-10-08T09:33:19.198Z",
  "networkType": "ethereum",
  "devdoc": {
    "kind": "dev",
    "methods": {
      "owner()": {
        "details": "Returns the address of the current owner."
      },
      "renounceOwnership()": {
        "details": "Leaves the contract without owner. It will not be possible to call `onlyOwner` functions anymore. Can only be called by the current owner. NOTE: Renouncing ownership will leave the contract without an owner, thereby removing any functionality that is only available to the owner."
      },
      "transferOwnership(address)": {
        "details": "Transfers ownership of the contract to a new account (`newOwner`). Can only be called by the current owner."
      }
    },
    "version": 1
  },
  "userdoc": {
    "kind": "user",
    "methods": {
      "winningProposalID()": {
        "notice": "Calcule la proposition gagnante en prenant tous les votes prcdents en compte."
      }
    },
    "version": 1
  }
}