{
  "contractName": "Whitelist",
  "abi": [
    {
      "inputs": [
        {
          "internalType": "address",
          "name": "",
          "type": "address"
        }
      ],
      "name": "_whitelist",
      "outputs": [
        {
          "internalType": "bool",
          "name": "",
          "type": "bool"
        }
      ],
      "stateMutability": "view",
      "type": "function"
    },
    {
      "inputs": [
        {
          "internalType": "uint256",
          "name": "",
          "type": "uint256"
        }
      ],
      "name": "addresses",
      "outputs": [
        {
          "internalType": "address",
          "name": "",
          "type": "address"
        }
      ],
      "stateMutability": "view",
      "type": "function"
    },
    {
      "inputs": [
        {
          "internalType": "address",
          "name": "_address",
          "type": "address"
        }
      ],
      "name": "whitelist",
      "outputs": [],
      "stateMutability": "nonpayable",
      "type": "function"
    },
    {
      "inputs": [],
      "name": "getAddresses",
      "outputs": [
        {
          "internalType": "address[]",
          "name": "",
          "type": "address[]"
        }
      ],
      "stateMutability": "view",
      "type": "function"
    }
  ],
  "bytecode": "0x608060405234801561001057600080fd5b5061047f806100206000396000f3fe608060405234801561001057600080fd5b5060043610610069576000357c0100000000000000000000000000000000000000000000000000000000900480639b19251a1461006e578063a39fac12146100b2578063cfdb63ac14610111578063edf26d9b1461016d575b600080fd5b6100b06004803603602081101561008457600080fd5b81019080803573ffffffffffffffffffffffffffffffffffffffff1690602001909291905050506101db565b005b6100ba61033a565b6040518080602001828103825283818151815260200191508051906020019060200280838360005b838110156100fd5780820151818401526020810190506100e2565b505050509050019250505060405180910390f35b6101536004803603602081101561012757600080fd5b81019080803573ffffffffffffffffffffffffffffffffffffffff1690602001909291905050506103c8565b604051808215151515815260200191505060405180910390f35b6101996004803603602081101561018357600080fd5b81019080803590602001909291905050506103e8565b604051808273ffffffffffffffffffffffffffffffffffffffff1673ffffffffffffffffffffffffffffffffffffffff16815260200191505060405180910390f35b6000808273ffffffffffffffffffffffffffffffffffffffff1673ffffffffffffffffffffffffffffffffffffffff16815260200190815260200160002060009054906101000a900460ff161561027d576040517f08c379a00000000000000000000000000000000000000000000000000000000081526004018080602001828103825260258152602001806104256025913960400191505060405180910390fd5b60016000808373ffffffffffffffffffffffffffffffffffffffff1673ffffffffffffffffffffffffffffffffffffffff16815260200190815260200160002060006101000a81548160ff0219169083151502179055506001819080600181540180825580915050600190039060005260206000200160009091909190916101000a81548173ffffffffffffffffffffffffffffffffffffffff021916908373ffffffffffffffffffffffffffffffffffffffff16021790555050565b606060018054806020026020016040519081016040528092919081815260200182805480156103be57602002820191906000526020600020905b8160009054906101000a900473ffffffffffffffffffffffffffffffffffffffff1673ffffffffffffffffffffffffffffffffffffffff1681526020019060010190808311610374575b5050505050905090565b60006020528060005260406000206000915054906101000a900460ff1681565b600181815481106103f557fe5b906000526020600020016000915054906101000a900473ffffffffffffffffffffffffffffffffffffffff168156fe54686973206164647265737320697320616c72656164792077686974656c69737465642021a2646970667358221220c64077bb2b8653e253dd60e97426b13130517ab8129da60755f70aed5cdd759364736f6c634300060b0033",
  "immutableReferences": {},
  "source": "// SPDX-License-Identifier: MIT\npragma solidity 0.6.11;\n\ncontract Whitelist {\n    mapping(address=> bool) public _whitelist;\n    address[] public addresses;\n\n    function whitelist(address _address) public {\n        require(!_whitelist[_address], \"This address is already whitelisted !\");\n        _whitelist[_address] = true;\n        addresses.push(_address);\n    }\n\n    function getAddresses() public view returns(address[] memory){\n        return addresses;\n    }\n\n}\n",
  "sourcePath": "/home/matthieu/Documents/Alyra/truffle/voting-react/contracts/Whitelist.sol",
  "compiler": {
    "name": "solc",
    "version": "0.6.11+commit.5ef660b1.Emscripten.clang"
  },
  "schemaVersion": "3.4.1",
  "updatedAt": "2021-11-12T15:05:06.592Z",
  "devdoc": {
    "kind": "dev",
    "methods": {},
    "version": 1
  },
  "userdoc": {
    "kind": "user",
    "methods": {},
    "version": 1
  }
}